:020000021000EC
:108000000040002069820100A9820100AB820100CA
:108010000000000000000000000000000000000060
:10802000000000000000000000000000AD82010020
:108030000000000000000000AF820100B1820100DA
:10804000B5820100B782010025910100BB820100C9
:10805000BD82010000000000D1960100C182010034
:10806000C3820100C5820100C7820100C9820100EC
:10807000CB820100CD820100CF820100D1820100BC
:10808000D382010089FF0100D782010000000000B7
:10809000D5FF0100DB82010021060200DF82010022
:1080A000E1820100E3820100000000000000000006
:1080B00000000000000000000000000000000000C0
:1080C00010B5064C2378002B07D10548002802D0B4
:1080D000044800E000BF0121217010BDA02800204D
:1080E00000000000D421020008B5084B002B03D08B
:1080F0000748084900E000BF07480168002903D08D
:10810000064A002A00D0904708BDC0460000000083
:10811000D4210200A42800209C2800200000000098
:10812000164B002B00D1144B9D46402292029A1A06
:10813000924600218B460F461348144A121A00F04B
:1081400089F80F4B002B00D098470E4B002B00D026
:1081500098470020002104460D4600200C490022CB
:10816000002300F017F800F04FF82046294601F0F0
:1081700047F800F01BF8C04600000800004000204F
:108180000000000000000000A0280020A82F002010
:10819000DD81010010B5044C002C02D000E000BFCE
:1081A00000E0201C10BDC04600000000094B10B5C7
:1081B000041C002B03D0002100E000BF01E000F010
:1081C0000DF805480068816A002900D08847201C06
:1081D00000F048F800000000B01D020038B5084B60
:1081E000084C1D1CE01A8410002C06D0A1006A184F
:1081F000043A13689847013CF6E709F0D1FD38BD11
:10820000982800209C28002070B50E4B0E4D0024AD
:10821000E81A85101E1CAC4204D0A1007258904789
:108220000134F8E709F0B6FD0849094A0E1C541A52
:10823000A5100024AC4204D0A300F05880470134BC
:10824000F8E770BD9428002094280020942800208E
:10825000982800208218031C934202D01970013321
:10826000FAE77047FEE7C0460948026803210A435F
:1082700002600849084A094B9B1A05DD0024085989
:10828000105104349C42FADB0548804705480047FA
:1082900024050040E0210200002800209C28002046
:1082A000FD82010021810100FEE7FEE7FEE7FEE717
:1082B000FEE7FEE7FEE7FEE7FEE7FEE7FEE7FEE796
:1082C000FEE7FEE7FEE7FEE7FEE7FEE7FEE7FEE786
:1082D000FEE7FEE7FEE7FEE7FEE7FEE7FEE7FEE776
:1082E000FEE7FEE780B500AF024B034A1A60BD46C9
:1082F00080BDC0466C2800200024F40080B500AF8B
:1083000000F01EF8031C002B06D00A4B0A4A1A6024
:108310000A4B802212021A6000F052F8031C002B54
:1083200005D08023DA05C123DB000121D150BD46F1
:1083300080BDC04604050040DFFF07C0186C004048
:1083400080B500AF1A4B1A68FF231340012B2AD1C6
:10835000184B1A680F23134025D1174B1A68F023C6
:10836000134006D1154B1A68F023134001D10123A5
:108370001AE0114B1A68F0231340102B06D10F4B53
:108380001A68F023134001D101230DE00A4B1A684B
:10839000F0231340302B06D1084B1A68F02313400A
:1083A00001D1012300E00023181CBD4680BDC0465A
:1083B000E00F00F0E40F00F0E80F00F0EC0F00F029
:1083C00080B500AF0D4B1A68FF231340012B11D16C
:1083D0000B4B1A680F2313400CD10A4B1A68F02379
:1083E0001340402B06D1084B1A68F023134001D1EB
:1083F000012300E00023181CBD4680BDE00F00F003
:10840000E40F00F0E80F00F0EC0F00F080B582B050
:1084100000AF021CFB1D1A70064BFA1D1278111CCE
:108420001F220A400121081C9040021C1A60BD4610
:1084300002B080BD00E100E0B0B582B000AF021C28
:108440003960FB1D1A70FB1D1B787F2B32D9304918
:10845000FB1D1B781A1C0F231340083B98082C4A5D
:10846000FB1D1B781C1C0F232340083B9B08063375
:108470009B00D3185B68FA1D1278141C032222405B
:10848000D200FF24251C95402A1CD2431A403B6889
:108490009C01FF231C40FB1D1B781D1C03232B404C
:1084A000DB00251C9D402B1C1A43831D9B00CB1811
:1084B0005A6029E0174BFA1D127852B292081549FA
:1084C000F81D007840B28008C03080004158F81D87
:1084D0000078041C03202040C000FF24251C854098
:1084E000281CC043084039688C01FF210C40F91D4D
:1084F00009780D1C03212940C900251C8D40291C29
:108500000143C0329200D150BD4602B0B0BDC0465A
:1085100000ED00E000E100E080B500AFBFF34F8F59
:10852000024B034ADA60BFF34F8FFEE700ED00E035
:108530000400FA0540DF7047181CC04675DF70471D
:10854000181CC04676DF7047181CC04686DF70478F
:10855000181CC04687DF7047181CC04688DF70476C
:10856000181CC04680B582B000AF7860A023DB0540
:108570007A68C132FF3292000321D150BD4602B069
:1085800080BDC04680B582B000AF7860FB1C19701A
:10859000BB1C1A70A023DB05BA1C12781204111C34
:1085A000FA1C1278920011437A68C132FF329200AD
:1085B000D150BD4602B080BD80B582B000AF7860BA
:1085C000A023DA057B6801219940A123DB00D1506B
:1085D000BD4602B080BDC04680B582B000AF7860B5
:1085E000A023DA057B6801219940024BD150BD469A
:1085F00002B080BD0C05000080B582B000AF78608D
:108600007B68181C00F0CEFEBD4602B080BDC0469F
:1086100080B584B000AFF860B9607A600F20FFF7D2
:10862000CBFFFFF779FFBD4604B080BD80B582B0B7
:1086300000AF021C3960BB1D1A80BB1D1A8805499A
:108640003B68081C111C1A1CFFF7E2FFBD4602B074
:1086500080BDC046EFBEADDE80B58CB000AFF86027
:10866000B9607A60BB681B78113B122B00D9ADE072
:108670009A005F4BD3181B689F46BB685B681A88DB
:108680005C4B1A800920FFF797FF5B4B181CFFF724
:10869000B3FF5A4AFB68111C1A1C0423081C111C46
:1086A0001A1C08F00EFEBB685B681B88544A101C3D
:1086B000191C08F0EBFC031CFB62FB6ABB62BB6A83
:1086C000002B06D0BA6A4F4B101CE7211A1CFFF78B
:1086D0009FFF4D4B1B780133DAB24B4B1A704A4B5C
:1086E0001B78002B00D073E000F04CFC70E0444B92
:1086F000181C00216222FFF7ADFD0920FFF76CFF77
:10870000414B1B78012B01D100F03CFC3E4B1B7808
:10871000013BDAB23C4B1A703C4B181CFFF76CFF64
:1087200061E0364B181C04F063FE031CFB62FB6A1D
:108730007B627B6A002B4DD0796A84235A00314BCF
:10874000081C111C1A1CFFF763FF43E0304B181C78
:1087500001F044FC031CFB62FB6A3B623B6A002B9A
:108760003AD0396A2B4A274B081C111C1A1CFFF7F8
:108770004FFF31E07B68FB61FB69002B2ED0F9696C
:108780008E235A001F4B081C111C1A1CFFF740FFB8
:1087900024E07B68BB61BB69002B21D0B9691E4A0C
:1087A000184B081C111C1A1CFFF732FF18E07B68DD
:1087B0007B617B69002B15D0796993235A00114B9B
:1087C000081C111C1A1CFFF723FF0BE0C0460AE02F
:1087D000C04608E0C04606E0C04604E0C04602E0ED
:1087E000C04600E0C0460023181CBD460CB080BD4A
:1087F0003C1E020054290020E41D02004C290020E8
:10880000BC280020E81D020050290020F41D0200B1
:1088100020290020110100002101000080B588B04E
:1088200000AFB9607A603B1C0F33021C1A70002342
:10883000FB61BB681B68BB612DE0BA69FB69D2189C
:108840003B1C173312781A70FB690133BA69D218CE
:108850003B1C163312781A703A1C16323B1C0F332D
:1088600012781B789A420FD1FB690233BA69D21889
:108870007B681A603B1C17331B789BB2013B9AB292
:108880007B689A8000230DE03B1C17331A78FB6944
:10889000D3180133FB61BB689B881A1CFB699A42A1
:1088A000CBD80523181CBD4608B080BD80B58CB060
:1088B00000AF78607B6804337B627B681B88103B69
:1088C0000D2B00D9A3E09A00554BD3181B689F4687
:1088D0007B6A1A1C0B323B1C14331A607B6A9B7A2E
:1088E0001B06DB0EDBB21A1C3B1C14339A804D4B6B
:1088F000181CFFF781FE3A1C14323B1C0C33092074
:10890000111C1A1CFFF78AFF031CFB62FB6A002B79
:108910000AD03A1C14323B1C0C330820111C1A1CC0
:10892000FFF77CFF031CFB62FB6A002B00D073E0A7
:108930003B1C0C331A683B1C0C339B88D318002259
:108940001A70394B1A683B1C0C331B68101C191C1D
:1089500008F002FD021C3B1C233351424A411A70AD
:108960000023BB6223E03B1C23331B78002B1BD06E
:108970002E4B1B78002B17D0FFF7ECFD031CFB627E
:108980000820FFF729FE2A4B1A7802218A431A7021
:108990007B6A991C264A274B081C111C1A1CFFF7DE
:1089A000DDFD031CFB6237E0BB6A0133BB623B1C8D
:1089B0000C339B885B089BB21A1CBB6A9A42D2D8C4
:1089C0002AE07B6A9B78022B23D11B4B1B78012B5F
:1089D0001FD1194B02221A7000F0D4FA19E07B6AF9
:1089E0001A887B6A0233101C191CFFF7A7FD031CB1
:1089F000FB62FB6AFB61FB69002B0CD0F9690F4A33
:108A00000F4B081C111C1A1CFFF702FE03E0C046A6
:108A100002E0C04600E0C046BD460CB080BDC04686
:108A2000881E0200F81D02007C2800205329002027
:108A300038290020341E020051290020BF01000007
:108A4000E81D020080B582B000AF78607B68023B11
:108A5000012B09D8074B1B78002B07D0054B0022B0
:108A60001A7000F08FFA01E0C04600E0C046BD4633
:108A700002B080BD5229002080B582B000AF78607E
:108A80007B68181C05F05AFD0C4A7B68101C191CE9
:108A900008F066FB0A4A7B68101C191C01F020FADA
:108AA000084A7B68101C191C01F05CFC7B68181CD0
:108AB000FFF7FCFEBD4602B080BDC046BC280020CA
:108AC000202900202C29002080B582B000AF7860DA
:108AD0007B68181C02F022FC7B68181CFFF7B2FFB1
:108AE000BD4602B080BDC04680B586B000AF1F4B0A
:108AF0000820191C4822002307F010FD031C7B618D
:108B00007B693B613B69002B07D03969184A194BD7
:108B1000081C111C1A1CFFF77BFD174B181C07F0D3
:108B200057FD031CFB60FB68BB60BB68002B07D0D4
:108B3000B968124A0F4B081C111C1A1CFFF768FD7C
:108B40000F4B181C07F058FD031CFB60FB687B6093
:108B50007B68002B07D079680A4A064B081C111C59
:108B60001A1CFFF755FDBD4606B080BD70290020D8
:108B70000A020000E81D0200798A01000E020000CE
:108B8000C98A01001202000080B588B000AF02F06F
:108B900033FF031CFB61FB69BB61BB69002B07D082
:108BA000B969344A344B081C111C1A1CFFF730FDFC
:108BB0003B1C00221A703B1C181C04F01FFB031CFA
:108BC000FB61FB697B617B69002B07D079692B4ACC
:108BD000294B081C111C1A1CFFF71AFD3B1D0533FD
:108BE000181C00210522FFF735FB3B1D244A1A60A3
:108BF0003B1D02221A713B1D5A7901210A435A7109
:108C00003B1D5A7902210A435A713B1D5A791C2196
:108C10008A430C210A435A713B1D5A7920218A4309
:108C20005A713B1D07229A713B1D1022DA713B1DC0
:108C30001A7A01210A431A723B1D1A7A02210A4349
:108C40001A72104A3B1D101C191C04F085FB031CF2
:108C5000FB61FB693B613B69002B08D039699023BC
:108C60009A00054B081C111C1A1CFFF7D1FCBD46CD
:108C700008B080BD22020000E81D02002A020000A8
:108C8000598601004829002080B500AF0820FFF771
:108C900069FC0920FFF766FC0F20FFF763FCBD4667
:108CA00080BDC04680B500AF012000210322FFF740
:108CB00069FCBD4680BDC04680B582B000AFFFF7FD
:108CC00039FC031C7B607B683B603B68002B07D052
:108CD0003968054A054B081C111C1A1CFFF798FC43
:108CE000BD4602B080BDC04662020000E81D020021
:108CF00080B58AB000AF786039603B681B78012B83
:108D000002D0022B27D045E0254B181C04F070FB45
:108D1000031C7B627B6A3B623B6A002B07D0396A8B
:108D2000204A214B081C111C1A1CFFF771FC7B68A0
:108D3000181C01F053F9031C7B627B6AFB61FB6921
:108D4000002B29D0F969194A174B081C111C1A1C51
:108D5000FFF75EFC20E03B685B88391C0831144A51
:108D6000081C111C1A1C08F0D5FA3B1C1B330122ED
:108D70001A703B1C1B331B7801225340DBB2002BC3
:108D80000BD09F239A00084B0020111C1A1CFFF7E0
:108D90003FFC02E0C04600E0C046BD460AB080BDD0
:108DA0004C29002072020000E81D0200750200003C
:108DB000FC1D020080B58EB000AF786039603B6862
:108DC0001B78012B2AD0022B46D0002B62D17B6866
:108DD000181C01F017FB031C7B637B6B3B633B6B35
:108DE000002B07D0396B2E4A2E4B081C111C1A1C65
:108DF000FFF70EFC7B68181C01F0ECFA031C7B6388
:108E00007B6BFB62FB6A002B46D0F96A264A254B36
:108E1000081C111C1A1CFFF7FBFB3DE03B685B784C
:108E2000391C1831214A081C111C1A1C08F072FA4E
:108E30003B1C2B3301221A703B1C2B331B78012265
:108E40005340DBB2002B28D0194A164B0020111CCE
:108E50001A1CFFF7DDFB20E03B685B78391C08310A
:108E6000124A081C111C1A1C08F054FA3B1C2A3325
:108E700001221A703B1C2A331B7801225340DBB2BB
:108E8000002B0AD00B4A074B0020111C1A1CFFF7BD
:108E9000BFFB02E0C04600E0C046BD460EB080BD4C
:108EA00091020000E81D0200930200000C1E020067
:108EB0009B020000A302000080B584B000AF0D4B00
:108EC0007B600D4A3B1D101C191C00F0D1FF031CD8
:108ED000FB60FB68BB60BB68002B07D0B968074A22
:108EE000074B081C111C1A1CFFF792FBBD4604B06F
:108EF00080BDC046F18C010020290020B602000090
:108F0000E81D020080B584B000AF0D4B7B600D4AB8
:108F10003B1D101C191C01F0E9F9031CFB60FB68E8
:108F2000BB60BB68002B08D0B968B1239A00064B20
:108F3000081C111C1A1CFFF76BFBBD4604B080BD5A
:108F4000B58D01002C290020E81D020080B582B0FB
:108F500000AF08F03BF8031C7B607B683B603B681C
:108F6000002B07D03968054A054B081C111C1A1C38
:108F7000FFF74EFBBD4602B080BDC046CE020000EA
:108F8000E81D020080B59AB000AF3B1D181C03F02D
:108F9000C7F9031C7B667B6E3B663B6E002B07D0DC
:108FA000396E494A494B081C111C1A1CFFF730FB4B
:108FB0007B68002B03D0464B01221A7080E03B1CDB
:108FC000483308221A713B1C483300221A733B1C99
:108FD00048333A1C28321A603B1C48333A1C08328A
:108FE0009A603C4A3B1C4833101C191C04F0A8FB37
:108FF000031C7B667B6EFB65FB6D002B07D0F96D58
:10900000354A324B081C111C1A1CFFF701FB3B1C94
:1090100048331B79002B04D13B1C48331B7B002BAE
:1090200003D02E4B1B78012B16D02D4B1A78012123
:109030008A431A702A4B1A7802218A431A70284BE5
:10904000A0221A81264B50225A81254B00225A60B9
:10905000234B00229A8119E0214B1A7801218A437F
:109060001A701F4B1A7802210A431A701C4BA02257
:109070001A811B4B50225A81194B3A1C48325A60B4
:10908000174B1E229A81154B01221A70144B181C83
:10909000FFF75CFA031C7B667B6EBB65BB6D002B28
:1090A00007D0B96D0F4A094B081C111C1A1CFFF799
:1090B000AFFA0D4B181CFFF79FFA0820FFF77CFA58
:1090C000BD461AB080BDC046DF020000E81D0200A8
:1090D0005229002048290020EF02000051290020D9
:1090E000382900200B030000F81D020080B582B073
:1090F00002AF00230093132011211222102300F04D
:109100007BF9074AC1239B000421D150022003218F
:10911000FFF792F90220FFF779F9BD4680BDC046FE
:109120000020004090B583B000AFFC1D00F0C8F8EF
:10913000031C23700A4B1B780A4AF91D0978D15485
:10914000074B1B780133DAB2054B1A70FB1D1B78F5
:10915000FF2B02D1044B01221A70BD4603B090BD13
:10916000572900205C2900205829002080B582B0B2
:1091700000AF1B4B1B78002B2ED0194B00221A700E
:10918000184B00221A70184B1B78632B16D16320E2
:1091900000F0EAF8144B5B785A1E144B9200D25838
:1091A000134B1A60134B01221A70FFF7D3F9124BBD
:1091B000181CFFF7CBF9031C7B600DE0642000F066
:1091C000D3F80C4B00221A700C4B1B88181C13216F
:1091D000FFF7B8F9031C3B60BD4602B080BDC04636
:1091E00058290020572900205C29002070280020E1
:1091F0007C280020532900203829002054290020F1
:1092000080B500AFFFF772FFFFF73EFDFFF74AFDA5
:10921000FFF76AFCFFF7B8FCFFF798FEFFF74CFE7C
:10922000FFF770FE054B181CFFF7E6F9FFF7AAFEE3
:10923000FFF742FDFFF79AFFFAE7C0461C1E020047
:1092400080B582B000AF7860C046C046C046C04618
:10925000C046C046C046C046C046C046C046C046DE
:10926000C046C0467B68013B7B60002BECD1BD460D
:1092700002B080BD80B582B000AF7860A023DB056E
:109280007A68C132FF3292000321D150BD4602B04C
:1092900080BDC04680B582B000AF78600A1CFB1C60
:1092A0001A70A023DB05FA1C12789200111C7A6850
:1092B000C132FF329200D150BD4602B080BDC046DF
:1092C00080B500AFC046094A84235B00D358012B08
:1092D000F9D1064A84235B000021D150034AA3231D
:1092E000DB00D358DBB2181CBD4680BD0020004017
:1092F00080B584B000AF786039603B1C0F33012229
:109300001A7013E07B68DB43DB0FDBB27A68013A4B
:109310007A60002B05D0FA239B00181CFFF790FF02
:1093200004E03B1C0F3300221A7005E00D4A842331
:109330005B00D358012BE5D17B68002B0BDB094A7E
:1093400084235B000021D150064AA323DB00D358BD
:10935000DAB23B681A703B1C0F331B78181CBD46F1
:1093600004B080BD0020004080B582B000AF021C78
:10937000FB1D1A70094AFB1D1978094BD150C046D4
:10938000064A8E235B00D358012BF9D1034A8E2362
:109390005B000021D150BD4602B080BD00200040DE
:1093A0001C05000080B584B000AF78600023FB602E
:1093B0007A68FB68D2183B1C0B3312781A70FB6872
:1093C0000133FB600FE03B1C0B331B78181CFFF7CD
:1093D000CBFF7A68FB68D2183B1C0B3312781A70EB
:1093E000FB680133FB603B1C0B331B78002BEAD17D
:1093F000BD4604B080BDC04690B583B000AF041C2C
:10940000081C111C1A1CFB1D1C70BB1D18707B1D39
:1094100019703B1D1A70BB1D1B78181CFFF72AFF23
:109420003B1D1B78181C0021FFF734FF204ABB1D91
:109430001978204BD1501E4A3B1D19781E4BD15034
:109440003B1C18331B78002B1AD0FB1D1B78181CF3
:10945000FFF710FF7B1D1B78181C0021FFF71AFF78
:10946000134A7B1D1978A223DB00D150104AFB1D43
:109470001978A123DB00D1500D4A104B0121D150A6
:109480000B4A0F4B0F49D150094AA023DB0004219E
:10949000D150074B01229A60054B01221A60044A01
:1094A00084235B000021D150BD4603B090BDC0466F
:1094B000002000400C050000140500006C050000B1
:1094C000240500000050270080B582B000AF021CC8
:1094D000FB1D1A70064BFA1D1278111C1F220A4040
:1094E0000121081C9040021C1A60BD4602B080BDDC
:1094F00000E100E080B582B000AF021CFB1D1A70D5
:10950000084AFB1D1B78191C1F230B400121081C56
:109510009840031C191CC0235B00D150BD4602B00B
:1095200080BDC04600E100E0B0B582B000AF021CD3
:109530003960FB1D1A70FB1D1B787F2B32D9304917
:10954000FB1D1B781A1C0F231340083B98082C4A5C
:10955000FB1D1B781C1C0F232340083B9B08063374
:109560009B00D3185B68FA1D1278141C032222405A
:10957000D200FF24251C95402A1CD2431A403B6888
:109580009C01FF231C40FB1D1B781D1C03232B404B
:10959000DB00251C9D402B1C1A43831D9B00CB1810
:1095A0005A6029E0174BFA1D127852B292081549F9
:1095B000F81D007840B28008C03080004158F81D86
:1095C0000078041C03202040C000FF24251C854097
:1095D000281CC043084039688C01FF210C40F91D4C
:1095E00009780D1C03212940C900251C8D40291C28
:1095F0000143C0329200D150BD4602B0B0BDC0465A
:1096000000ED00E000E100E080B582B000AF7860DE
:109610007A68032313405A425341DBB2181CBD46FB
:1096200002B080BD80B586B000AF7860396000239D
:109630007B6145E07B690122111C99400B1CFB609A
:109640003B68FA68134038D07B68DB68FA681340DF
:1096500009D180239B023B617B68DA68FB681A436F
:109660007B68DA6009E0C0239B023B617B68DB68B2
:10967000FA68D2431A407B68DA60A023DB05A02297
:10968000D2057969C131FF31890089580F4A1140EB
:109690007A69C132FF329200D150A023DB05A022AB
:1096A000D2057969C131FF31890089583A6911437E
:1096B0007A69C132FF329200D1507B6901337B61FC
:1096C0007B691F2BB6D9BD4606B080BDFFFFFCFFEE
:1096D00080B588B000AFA023DA05A223DB00D35801
:1096E000BB613E4ABE235B000021D1503B1C1F33AF
:1096F00000221A7068E03A4B19683B1C1F331A7835
:10970000131C9B009B189B00CB183B613B1C1F3319
:109710001B780122111C99400B1C1A1C314B1B6831
:1097200013404AD03B69DB68DA43BB695A403B6966
:109730001B6813407B613A697B69101C191CFFF799
:1097400071FFA023DA05A223DB00D258BB69534086
:10975000FB60FB68002B16D0BA69FB681343BB6142
:109760003B69DB68DA43BB695A403B691B681340BD
:10977000BB603A69BB68101C191CFFF753FF7A697C
:10978000BB6813437B61BB69DA433B699B68134049
:109790007A6913407B603B695B68BA6913407A69F8
:1097A00013403B603A687B68134306D03B691B69F2
:1097B00039687A68081C111C98473B1C1F333A1CF7
:1097C0001F32127801321A70074B1B783A1C1F3275
:1097D00012789A428FD3BD4608B080BD0060004029
:1097E000C0290020B8290020BD29002080B584B000
:1097F00000AF021CFB1D1A700023FB6031E01C4B04
:109800001968FB1D1A78131C9B009B189B00CB1832
:109810001B68FA680121081C9040021C13401DD0EF
:10982000A023DB05A022D205F968C131FF318900F0
:109830008958104A1140FA68C132FF329200D15063
:10984000A023DB05A022D205F968C131FF318900D0
:109850008958FA68C132FF329200D150FB68013357
:10986000FB60FB681F2BCAD9BD4604B080BDC04653
:10987000C0290020FFFFFCFF80B582B000AF021CB2
:109880003960FB1D1A703B68002B01D1072337E0BC
:109890003B68181CFFF7B8FE031C01225340DBB2E3
:1098A000002B01D007232BE0174B3A681A60174BA7
:1098B000FA1D12781A70164B00221A70154B0022EE
:1098C0001A60114B1968114B1B781A1C131C9B0052
:1098D0009B189B00081C00211A1CFEF7BBFC0E4ABB
:1098E000C2239B0001214942D1500620FFF702FE0E
:1098F00006200121FFF718FE0620FFF7E5FD0023F3
:10990000181CBD4602B080BDC0290020BC29002023
:10991000BD290020B82900200060004080B584B037
:1099200000AFF860B9607A603B602C4B1B68002B7D
:1099300001D108234DE03B68002B01D1072348E00B
:10994000274B1A78274B1B789A4201D3042340E017
:10995000224B1968224B1B781A1C131C9B009B1866
:109960009B00CB18B9687A680A431A601B4B1968C8
:109970001B4B1B781A1C131C9B009B189B00CB18BD
:10998000BA685A60154B1968154B1B781A1C131CC2
:109990009B009B189B00CB187A689A600F4B196844
:1099A0000F4B1B781A1C131C9B009B189B00CB1899
:1099B0003A681A610A4B1B78FA68191C1170013356
:1099C000DAB2074B1A70FB681B78181CFFF70EFF02
:1099D0000023181CBD4604B080BDC046C02900202D
:1099E000BD290020BC29002080B586B000AF021C34
:1099F000FB1D1A704D4B1B68002B01D1082391E011
:109A00004B4B1B78FA1D12789A4201D3072389E049
:109A1000484ABE235B000021D150A023DA05A223CF
:109A2000DB00D358FB60444B1B68002B05D1414A37
:109A3000C1239B0080210906D150FB1D1B78012208
:109A4000111C99400B1C1A1C3B4B1B681A433A4BC8
:109A50001A60364B1968FB1D1A78131C9B009B1863
:109A60009B00CB180022DA6000237B6156E07B6903
:109A70000122111C99400B1CBB602C4B1968FB1D6B
:109A80001A78131C9B009B189B00CB181B68BA68A4
:109A9000134040D0FB68BA68134003D0C0239B0238
:109AA0003B6118E080239B023B61204B1968FB1D42
:109AB0001A78131C9B009B189B00CA181B4B186834
:109AC000FB1D19780B1C9B005B189B00C318D96801
:109AD000BB680B43D360A023DB05A022D2057969C4
:109AE000C131FF3189008958144A11407A69C13265
:109AF000FF329200D150A023DB05A022D205796964
:109B0000C131FF31890089583A6911437A69C132FC
:109B1000FF329200D1507B6901337B617B691F2B3F
:109B2000A5D90023181CBD4606B080BDC029002061
:109B3000BD29002000600040B8290020FFFFFCFF85
:109B400080B582B000AF021CFB1D1A70164B1B685B
:109B5000002B01D1082323E0144B1B78FA1D127847
:109B60009A4201D307231BE0FB1D1B78181CFFF74B
:109B70003DFEFB1D1B780122111C99400B1CDA4392
:109B80000B4B1B681A400A4B1A60094B1B68002BD1
:109B900005D1084AC2239B0080210906D150002329
:109BA000181CBD4602B080BDC0290020BD29002080
:109BB000B82900200060004080B584B000AF021CCE
:109BC0003960FB1D1A70134B1B68002B01D1082351
:109BD0001CE0114B1B78FA1D12789A4201D307231F
:109BE00014E00C4B1968FB1D1A78131C9B009B1882
:109BF0009B00CB18FB60A023DA05A223DB00D25820
:109C0000FB681B681A403B681A600023181CBD469D
:109C100004B080BDC0290020BD29002095DF704719
:109C2000181CC04697DF7047181CC04680B582B02C
:109C300000AF78607B681B781A1C7B6801331B7847
:109C40001B029BB213439BB29BB2181CBD4602B0D1
:109C500080BDC04680B582B000AF294B1A68294B41
:109C60001B689A4248D0264B1A682749131C9B0050
:109C70009B189B00CB189B78002B18D1204B1A689F
:109C80002149131C9B009B189B00595A1C4B1A68B6
:109C90001D48131C9B009B189B00C3189B88081C25
:109CA000191C0022FFF7BAFF031C7B6016E0144B5F
:109CB0001A681549131C9B009B189B00595A104B9E
:109CC0001A68131C9B009B189B000F4A9B180833B3
:109CD000081C191CFFF7A6FF031C7B607B68002B88
:109CE0000AD1074B1B685A1C054B1A60044B1A68B3
:109CF00007231A40024B1A60BD4602B080BDC04621
:109D00006C2A0020682A0020C829002080B582B073
:109D100000AF78603960FFF79DFFBD4602B080BD9F
:109D200080B584B000AF786039603B689A897B6801
:109D30009B889A4239D10023FB603B1C08330222E6
:109D40001A7039680823FA688A18D3189B7A1A1C83
:109D5000012313405A425341DBB2FA680132FA60E0
:109D6000002B0DD039680823FA688A18D3189B7A1B
:109D70001A1C3B1C08335A80FB680133FB600CE063
:109D8000FB6808333A68D3180A33181CFFF74EFFF4
:109D9000031C1A1C3B1C08335A807B689B6879683B
:109DA0003A1C0832081C111C9847BD4604B080BDFF
:109DB00090B585B000AF78607B681B78002B4DD1E3
:109DC0007B689A88274B9A4248D17B689B79012B04
:109DD00044D1254B1B687A6852881A800023FB60A7
:109DE00028E07968FA68131C5B009B189B00CB186D
:109DF0005A891E4B9A421AD11B4B19687C68FA6823
:109E00000820131C5B009B189B00E3181B189B8900
:109E10004B80154B19687C68FA680820131C5B009E
:109E20009B189B00E3181B185B898B8008E0FB687C
:109E30000133FB607B681B7A1A1CFB689A42D0D8FE
:109E40003B1C083301221A70074B1B689A68064BAB
:109E500019683B1C0833081C191C9047BD4605B007
:109E600090BDC0460D180000C4290020372A00000C
:109E700080B584B000AF786039607B68002B02D079
:109E80003B68002B01D10E2320E03B1C0C33012248
:109E90009A703B1C0C330F4A1A800F4B7A681A6079
:109EA0000D4B1B683A6812689A600B4B1B680122C5
:109EB00052421A80084B1B6800225A803A1C0C320E
:109EC000064B101C191C07F0B5F8031C181CBD46E6
:109ED00004B080BD0D180000C4290020B19D010010
:109EE00080B582B000AF786039607B68002B1FD0EE
:109EF0003B68002B1CD03B681B88372B0FD0382BBE
:109F000006D0102B12D13B689A887B681A8010E02B
:109F10007A683B68101C191CFFF702FF09E07A6899
:109F20003B68101C191CFFF7F1FE02E0C04600E080
:109F3000C046BD4602B080BD80B584B000AFBB1D39
:109F400018803B1D1980FB1C1A703B1C0E33FA1C39
:109F500012781A801F4B1A68131C9B009B189B00D9
:109F60001D495B18BB6001321A4B1A60194B1A6805
:109F700007231A40174B1A60BB683A1D12885A8192
:109F8000BB680222DA81BB681A1DBB681A61BB6814
:109F900000229A81BB6801221A723B1C0E331B8877
:109FA000DAB2BB681A713B1C0E331B881B0A9BB2CA
:109FB000DAB2BB685A71BB68BA1D12881A80BB68D6
:109FC00001229A70FFF746FE0023181CBD4604B01C
:109FD00080BDC046682A0020C829002080B582B014
:109FE00000AF78607B68002B01D10E2309E07B680D
:109FF0001A887B685B88101C191C0122FFF79CFFE4
:10A00000031C181CBD4602B080BDC04695DF7047DA
:10A01000181CC04697DF7047181CC04680B582B038
:10A0200000AF294B1A68294B1B689A4248D0264B2F
:10A030001A682749131C9B009B189B00CB189B7820
:10A04000002B18D1204B1A682149131C9B009B1828
:10A050009B00595A1C4B1A681D48131C9B009B18E7
:10A060009B00C3189B88081C191C0022FFF7CEFF19
:10A07000031C7B6016E0144B1A681549131C9B00E7
:10A080009B189B00595A104B1A68131C9B009B1875
:10A090009B000F4A9B180833081C191CFFF7BAFFD6
:10A0A000031C7B607B68002B0AD1074B1B685A1C82
:10A0B000054B1A60044B1A6807231A40024B1A60BA
:10A0C000BD4602B080BDC046182B0020142B0020D6
:10A0D000742A002080B582B000AF78603960FFF745
:10A0E0009DFFBD4602B080BD80B584B000AF7860F2
:10A0F00039603B680C33FB60FB681A887B689B887F
:10A100009A4210D13B1C083302221A70FB689A79DC
:10A110003B1C08335A707B689B6879683A1C08328C
:10A12000081C111C9847FFF779FFBD4604B080BD9D
:10A1300080B584B000AF786039603B689A897B68ED
:10A140009B889A4210D13B1C0C3301221A703B6849
:10A150009A7C3B1C0C335A707B689B6879683A1C6C
:10A160000C32081C111C9847BD4604B080BDC04687
:10A1700090B585B000AF78607B681B78002B5AD112
:10A180007B689A882D4B9A4255D17B689B79012B2D
:10A1900051D12B4B1B687A6852881A803B1C0F33B5
:10A1A00000221A7032E03B1C0F331A787968131CB6
:10A1B0005B009B189B00CB185A89224B9A421ED1F8
:10A1C0001F4B19683B1C0F331A787C680820131C3E
:10A1D0005B009B189B00E3181B189B894B80184B56
:10A1E00019683B1C0F331A787C680820131C5B002D
:10A1F0009B189B00E3181B185B898B800DE03B1CB0
:10A200000F333A1C0F32127801321A707B681B7AB6
:10A210003A1C0F3212789A42C5D33B1C0C330022F1
:10A220001A70074B1B689A68054B19683B1C0C3366
:10A23000081C191C9047BD4605B090BD0F180000C2
:10A24000702A0020192A000080B584B000AFBB1D21
:10A2500018803B1D1980FB1C1A703B1C0E33FA1C26
:10A2600012781A801F4B1A68131C9B009B189B00C6
:10A270001D495B18BB6001321A4B1A60194B1A68F2
:10A2800007231A40174B1A60BB683A1D12885A817F
:10A29000BB680222DA81BB681A1DBB681A61BB6801
:10A2A00000229A81BB6801221A723B1C0E331B8864
:10A2B000DAB2BB681A713B1C0E331B881B0A9BB2B7
:10A2C000DAB2BB685A71BB68BA1D12881A80BB68C3
:10A2D00001229A70FFF7A2FE0023181CBD4604B0AD
:10A2E00080BDC046142B0020742A002080B584B0A5
:10A2F00000AF786039607B68002B02D03B68002B90
:10A3000001D10E2324E03B1C0C3301229A703B1C2C
:10A310000C33114A1A80114B7A681A600F4B1B6874
:10A32000012252421A800D4B1B6800225A800B4BAF
:10A330001B6800229A80094B1B683A6812689A6071
:10A340003A1C0C32064B101C191C06F073FE031C41
:10A35000181CBD4604B080BD0F180000702A0020F4
:10A3600071A1010080B582B000AF786039607B6870
:10A37000002B2BD03B68002B28D03B681B88352B4B
:10A380001BD002DC102B05D01EE0372B0ED0382B53
:10A3900005D019E03B689A887B681A8017E07A68D4
:10A3A0003B68101C191CFFF7C3FE10E07A683B687D
:10A3B000101C191CFFF78EFE09E07A683B68101C20
:10A3C000191CFFF791FE02E0C04600E0C046BD4602
:10A3D00002B080BD80B582B000AF78607B68002B92
:10A3E00001D10E2309E07B681A887B685B88101C0A
:10A3F000191C0122FFF728FF031C181CBD4602B0E0
:10A4000080BDC04680B584B000AF7860114B1A683B
:10A41000131C9B009B189B000F495B18FB600132CB
:10A420000C4B1A600B4B1A6807231A40094B1A6031
:10A430007B689A88FB689A807B681A88FB681A8018
:10A44000FB6800229A70FFF7E9FD0023181CBD4647
:10A4500004B080BD142B0020742A002080B584B085
:10A4600000AFF860B9607A600B4A7B68101C191C59
:10A470007F2206F07BFF084A7F230021D154BB686E
:10A480009AB2064B1A80064BFA681A60034B1B8877
:10A49000034B1B6872B6FEE71C2B00209C2B002090
:10A4A000A02B002080B582B000AF7860C046C046C7
:10A4B000C046C046C046C046C046C046C046C0466C
:10A4C000C046C046C046C0467B68013B7B60002B4F
:10A4D000ECD1BD4602B080BD80B582B000AF021C99
:10A4E000FB1D1A700B4B181CFFF7DCFF0A4B0022F8
:10A4F0001A70094BFA1D12785A70074B7C20191CF0
:10A500000222012300F03EFD031C181CBD4602B0D0
:10A5100080BDC04610270000A42B002080B500AFEE
:10A52000264B181CFFF7BEFF254B00221A70244B48
:10A5300080225A70224B7C20191C0222012300F039
:10A5400021FD031C01225340DBB2002B01D000236C
:10A5500030E01C4B7C20191C1222012300F012FD5C
:10A56000031C01225340DBB2002B01D0002321E069
:10A57000134BC0225A70124B7C20191C022201235B
:10A5800000F000FD031C01225340DBB2002B01D080
:10A5900000230FE00B4B7C20191C1222012300F03A
:10A5A000F1FC031C01225340DBB2002B01D000233D
:10A5B00000E00123181CBD4680BDC04610270000E6
:10A5C000A42B00208028002080B582B000AF021CA0
:10A5D000FB1D1A700C4B181CFFF764FF0B4B00227D
:10A5E0001A70FB1D1B7870221343DAB2074B5A70A6
:10A5F000064B7C20191C0222012300F0C3FC031C23
:10A60000181CBD4602B080BD10270000A42B0020FE
:10A6100080B500AF0A4B181CFFF744FF094B00221E
:10A620001A70084B0C225A70064B7C20191C02220F
:10A63000012300F0A7FC031C181CBD4680BDC046CA
:10A6400010270000A42B002080B500AF0A4B181C77
:10A65000FFF728FF094B00221A70084B08225A7096
:10A66000064B7C20191C0222012300F08BFC031CEA
:10A67000181CBD4680BDC04610270000A42B00203A
:10A6800080B500AF00F02EFC031C01225340DBB26A
:10A69000002B01D000235FE000F0EEF93820FFF737
:10A6A0001BFF031C01225340DBB2002B01D000230F
:10A6B00052E03920FFF710FF031C01225340DBB2A8
:10A6C000002B01D0002347E01420FFF705FF031CF7
:10A6D00001225340DBB2002B01D000233CE00820D4
:10A6E000FFF772FF031C01225340DBB2002B01D0A5
:10A6F000002331E05F20FFF7EFFE031C01225340EF
:10A70000DBB2002B01D0002326E06A20FFF7E4FE35
:10A71000031C01225340DBB2002B01D000231BE0BD
:10A720000F4B181CFFF7BEFEFFF772FF031C012240
:10A730005340DBB2002B01D000230DE0FFF7EEFE0B
:10A74000031C01225340DBB2002B01D0002303E0A5
:10A750000620FFF7C1FE031C181CBD4680BDC04685
:10A76000400D030080B584B000AF7860081C111C58
:10A770001A1CFB1C1870BB1C19707B1C1A70424BF6
:10A7800000221A707A1CBB1C12781B78D318DBB21B
:10A79000803BDAB23C4B5A703B4B7C20191C0222A6
:10A7A000012300F0EFFB031C01225340DBB2002B1E
:10A7B00001D0002364E07B1C1B781222D31ADBB289
:10A7C000324A7C20111C1A1C012300F0DBFB031C05
:10A7D00001225340DBB2002B01D0002350E02A4B72
:10A7E00000221A707A1CBB1C12781B78D318DBB2BB
:10A7F000803BDAB2244B5A70234B7C20191C022276
:10A80000012300F0BFFB031C01225340DBB2002BED
:10A8100001D0002334E01C4B40221A703B1C0F3344
:10A8200000221A7016E03B1C0F331B78102B19D036
:10A830003B1C0F331B7801337A681178124AD154CC
:10A840007B6801337B603B1C0F333A1C0F3212785C
:10A8500001321A703A1C0F32FB1C12781B789A4294
:10A86000E1D300E0C0463B1C0F331B780133DBB261
:10A87000054A7C20111C1A1C012300F083FB031CD9
:10A88000181CBD4604B080BDA42B002080280020E9
:10A8900080B584B000AF7860264B7F20191C012260
:10A8A000012300F06FFB031C01225340DBB2002B9D
:10A8B00001D000233AE01F4B1B78DB43D9B23B1C8D
:10A8C0000F331D220A401A703B1C0F331A780123E4
:10A8D000134003D07B68FF221A700CE03B1C0F333F
:10A8E0001A781023134003D07B6801221A7002E00B
:10A8F0007B6800221A703B1C0F331A780423134024
:10A9000004D07B68013301221A700EE03B1C0F3328
:10A910001A780823134004D07B680133FF221A7091
:10A9200003E07B68013300221A700123181CBD4626
:10A9300004B080BDA42B002080B584B000AF786047
:10A940003B1C0F337F20191C0122012300F01AFB4E
:10A95000031C01225340DBB2002B01D0002310E086
:10A960003B1C0F331B78DB43DAB23B1C0F331A70EE
:10A970003B1C0F331A781F231340DAB27B681A701E
:10A980000123181CBD4604B080BDC04680B584B00C
:10A9900000AF7860FB1C1970BB1C1A70334BFB6056
:10A9A000FB1C1B78002B01D100235AE0304A7B6846
:10A9B0001B78191C2F4BD1507B6801337B602C4BCB
:10A9C00001229A60C0462A4A8E235B00D358002B8E
:10A9D00005D1FB68013BFB60FB68002BF3D1FB68F2
:10A9E000002B10D1224A82235B000021D150204B42
:10A9F00001225A61C0461E4A82235B00D358002BB5
:10AA0000F9D000232DE01A4A8E235B000021D1509B
:10AA1000FB1CFA1C1278013A1A70FB1C1B78002BE5
:10AA20000AD0134A7B681B78191C124BD1507B68E3
:10AA300001337B60C046C5E7C046BB1C1B78002BBA
:10AA40000ED00B4A82235B000021D150084B01221B
:10AA50005A61C046064A82235B00D358002BF9D0C6
:10AA60000123181CBD4604B080BDC046204E000026
:10AA7000004000401C05000090B583B000AFFB1DF6
:10AA80007C221A703B1C00221A703B1C00225A7058
:10AA90003B1C00229A703B1C0022DA70BB1D042272
:10AAA0001A707B1D00221A703B1D00221A70104A7A
:10AAB000FB1D1B785B08DBB2191CB123DB00D150F6
:10AAC0003C1D391CBB1D1A787B1D1B78081C111CF2
:10AAD0001A1CFFF75BFF031C2370054A92235B00DF
:10AAE0000021D1503B1D1B78181CBD4603B090BD02
:10AAF0000040004080B582B000AF7860C046C046DC
:10AB0000C046C046C046C046C046C046C046C04615
:10AB1000C046C046C046C0467B68013B7B60002BF8
:10AB2000ECD1BD4602B080BD80B584B000AF786086
:10AB3000FB1C1970BB1C1A703F4BFB60FB1C1B7885
:10AB4000002B01D1002373E03C4A7B681B78191C61
:10AB50003B4BD1507B6801337B60384B01229A60BC
:10AB6000C046364A8E235B00D358002B0BD1334AA4
:10AB700092235B00D358002B05D1FB68013BFB609F
:10AB8000FB68002BEDD1FB68002B05D02B4A9223EC
:10AB90005B00D358002B1DD0284A92235B00002174
:10ABA000D150264AA023DB000021D150234A254B57
:10ABB0000021D1500520FFF79DFF204A214B0121A4
:10ABC000D1501E4AA023DB000521D15000F08AF9A4
:10ABD00000232DE0194A8E235B000021D150FB1C7D
:10ABE000FA1C1278013A1A70FB1C1B78002B0AD051
:10ABF000124A7B681B78191C114BD1507B680133BA
:10AC00007B60C046ACE7C046BB1C1B78002B0ED057
:10AC10000A4A82235B000021D150084B01225A616D
:10AC2000C046064A82235B00D358002BF9D001238B
:10AC3000181CBD4604B080BD204E000000400040FE
:10AC40001C050000FC0F000080B584B000AF7860E8
:10AC5000FB1C1970BB1C1A704C4BFB60FB1C1B7857
:10AC6000002B01D100238DE0FB1C1B78012B04D1AC
:10AC7000474A484B4849D15003E0454A454B47496C
:10AC8000D150434A464B0121D150464A84235B00B0
:10AC90000021D150434B01221A60C046414A84230F
:10ACA0005B00D358002B0BD13E4A92235B00D35854
:10ACB000002B05D1FB68013BFB60FB68002BEDD14D
:10ACC000384A84235B000021D150FB68002B05D05B
:10ACD000344A92235B00D358002B1DD0314A922373
:10ACE0005B000021D1502F4AA023DB000021D1506E
:10ACF0002C4A2D4B0021D1500520FFF7FBFE294A9D
:10AD0000294B0121D150274AA023DB000521D15036
:10AD100000F0E8F8002335E0224AA323DB00D358F3
:10AD2000DAB27B681A707B6801337B60FB1CFA1C0B
:10AD30001278013A1A70FB1C1B78012B03D1144ABC
:10AD4000144B1549D150FB1C1B78002B07D0142045
:10AD5000FFF7D0FE134B01221A62C0469DE7C046A2
:10AD6000C046104A82235B00D358002BF9D00D4A0D
:10AD700082235B000021D150054AA123DB00012181
:10AD8000D1500123181CBD4604B080BD204E0000E8
:10AD900000F0014014050000144000401C40004039
:10ADA0000405000000400040FC0F000080B586B0A4
:10ADB00000AF484AA023DB00D358FB60454AA023DC
:10ADC000DB000021D150A023DA05EC23DB00D358AF
:10ADD000BB60A023DA05EC23DB003F49D150A02360
:10ADE000DA053E4BD3587B60A023DA053B4B3A494A
:10ADF000D150A023DA05A123DB0080218904D150A2
:10AE0000A023DA05A123DB0080214904D1500420CE
:10AE1000FFF770FEA023DA05A223DB00D3585A0EF9
:10AE2000012313400DD0A023DA05A223DB00D35861
:10AE30001A0E0123134004D03B1C173301221A7051
:10AE400030E03B1C173300221A7012233B6120E0D4
:10AE5000A023DA05224B80214904D1500420FFF7BA
:10AE600049FEA023DA05A123DB0080214904D1504B
:10AE70000420FFF73FFEA023DA05A223DB00D3580E
:10AE80005A0E0123134004D03B1C173301221A70C1
:10AE900008E03B695A1E9341DBB23A69013A3A61D4
:10AEA000002BD5D1A023DA05EC23DB00B968D15003
:10AEB000A023DA05094B7968D150064AA023DB00AC
:10AEC000F968D1503B1C17331B78181CBD4606B0DF
:10AED00080BDC046004000400D0600006407000031
:10AEE0000C05000080B500AFA023DA05EC23DB00E1
:10AEF0001B49D150A023DA051A4B1949D1501A4ADF
:10AF000084235B000021D150174A8E235B0000216F
:10AF1000D150154AA123DB001821D150124A134BFE
:10AF20001921D150104A124BCC214904D150114A59
:10AF3000A223DB001049D1500E4A104B1049D150CA
:10AF40000C4AA123DB000121D150074AA023DB00DA
:10AF50000521D150FFF72AFF031C181CBD4680BDF8
:10AF60000C06000064070000004000400C050000D3
:10AF70002405000000F001403841004014050000A5
:10AF80001C40004090B585B000AF3960111C1A1C00
:10AF9000FB1D1870BB1D19707B1D1A703B1C0F33F5
:10AFA00000221A70BB1D1B78002B2FD0FFF7FEFE6E
:10AFB000031C002B2AD0194AFB1D1B785B08DBB24F
:10AFC000191CB123DB00D150FB1D1A78012313405B
:10AFD0000ED03C1C0F343968BB1D1A787B1D1B78C2
:10AFE000081C111C1A1CFFF72FFE031C23700DE018
:10AFF0003C1C0F343968BB1D1A787B1D1B78081C5C
:10B00000111C1A1CFFF790FD031C23703B1C0F330F
:10B010001B78181CBD4605B090BDC04600400040DE
:10B0200021DF7047181CC04620DF7047181CC0463F
:10B0300080B582B000AF78607A68032313405A422B
:10B040005341DBB2181CBD4602B080BD80B582B052
:10B0500000AF78601D497A68131C9B009B189B0009
:10B06000CB1800221A7119497A68131C9B009B188F
:10B070009B00CB180022DA8014497A68131C9B00CD
:10B080009B189B00CB180C3301221A600F497A6879
:10B09000131C9B009B189B00CB18103300221A60D6
:10B0A0000A497A68131C9B009B189B00CB18143329
:10B0B00000221A6005497A68131C9B009B189B00AC
:10B0C000CB1800221A81BD4602B080BDC42B0020DF
:10B0D00080B582B000AF0F4B00221A800E4B0022C9
:10B0E0001A700E4B00221A700C4B00225A700B4B38
:10B0F00000229A7000237B6006E07B68181CFFF733
:10B10000A5FF7B6801337B607B68092BF5D9BD46C1
:10B1100002B080BD982C00209B2C0020C42B002066
:10B1200080B586B000AFB9607A601A1C3B1C0F3343
:10B13000011C19703B1C0C331A803B1C133300227A
:10B140001A703D4B5B780A2B6ED03B4B19783A4B0B
:10B150005A783B1C13338A181A703B1C13331B7824
:10B16000092B06D93B1C13333A1C133212780A3AC6
:10B170001A703B1C13331A782F49131C9B009B1821
:10B180009B003A1C0F32CB1812781A713B1C1333F8
:10B190001A782949131C9B009B189B00CB18143369
:10B1A0007A681A603B1C13331A7823480821131C51
:10B1B0009B009B189B00C3185B18BA68043303CA32
:10B1C00003C33B1C13331A781B49131C9B009B18A9
:10B1D0009B003A1C0C32CB181288DA803B1C1333CC
:10B1E0001A781549131C9B009B189B003A1C2032AF
:10B1F000CB1812881A8100237B610F4B9B780122A8
:10B200005340DBB2002B08D000F0EAFA031C7B614C
:10B210007B69112B01D100237B61074B5B780133E4
:10B22000DAB2054B5A7001E004237B617B69181C7C
:10B23000BD4606B080BDC046C42B002080B582B09C
:10B2400000AF00237B600A4B5B78002B0BD000F033
:10B25000C7FA031C7B607B68002B04D07B68112B32
:10B2600001D100237B607B68181CBD4602B080BD05
:10B27000C42B0020B0B586B002AF7860254B1B7898
:10B280001A1C391C0F312348131C9B009B189B0070
:10B29000C3181B790B701F4B1B781A1C1D49131CFC
:10B2A0009B009B189B00CB180C331A681A4B120199
:10B2B000D358BB60174B1B781A1C131C9B009B18A0
:10B2C0009B001A1C0832134BD318191D114B1B7805
:10B2D0001A1C1048131C9B009B189B00C3181433A6
:10B2E0001D680C4B1B781A1C0A48131C9B009B18EA
:10B2F0009B00C318DB88181C3B1C0F331A787B6833
:10B300000090BC68081C111C1A1C2B1CA047BD46D1
:10B3100004B0B0BDC42B00209C2C002080B586B0AA
:10B3200000AF786000237B616E4B9B78002B00D1CF
:10B33000D5E06C4B00229A706B4B1B78082B16D112
:10B340007B68022B03D1684B00221A7002E0674B26
:10B3500000221A70FFF772FF031C7B617B69002BD0
:10B3600000D1B9E07B69181CFFF784FFB4E07B686B
:10B37000022B03D0032B00D1A8E0ABE0594B1B7884
:10B380001A1C131C9B009B189B00564A9B180433E5
:10B390003B61574B1B8801339AB2554B1A803B696E
:10B3A0001B78022B08D1524B1B889A023B695B88A1
:10B3B0009A4201DB012200E000223B1C0F331A708D
:10B3C000197801220A401A703B691B78052B05D1B8
:10B3D000454B1B78072B01D1012200E000223B1CCA
:10B3E0000E331A70197801220A401A703B691B78D3
:10B3F000042B05D13C4B1B78072B01D1012200E027
:10B4000000223B1C0D331A70197801220A401A7071
:10B410003B691B78042B0CD1354B1B889A023B6986
:10B420005B889A4205DB304B1B78002B01D101224F
:10B4300000E000223B1C0C331A70197801220A40EC
:10B440001A703B1C0E331B78002B0ED13B1C0D33A6
:10B450001B78002B09D13B1C0C331B78002B04D12B
:10B460003B1C0F331B78002B24D01F4B00221A707B
:10B470007B69181CFFF7FEFE1A4B1B78181CFFF7A0
:10B48000E5FD1B4B00221A80164B5B78013BDAB2BC
:10B49000144B5A70134B1B780133DAB2114B1A70EC
:10B4A000104B1B78092B05D90E4B1B780A3BDAB2DF
:10B4B0000C4B1A70FFF7C2FE031C7B617B69002BEB
:10B4C0000CD07B69181CFFF7D5FE07E00D20FFF7B5
:10B4D000D1FE04E0C04602E0C04600E0C046BD46E2
:10B4E00006B080BDC42B00209B2C00209A2C00208D
:10B4F000982C002090B587B000AFF860B9607A60F2
:10B500003B6003237B61B34B1B78002B0CD17B6822
:10B51000002B06D13B68002B03D1AE4B02221A70E0
:10B5200002E0AC4B01221A70AA4B1B78062B00D903
:10B530003DE19A00A84BD3181B689F46A74B5B6957
:10B5400001330CD0A54B5A6980235B051B699BB264
:10B55000101C191C05F056FE031C013B03E0802360
:10B560005B055B69013B80225205126992B253432D
:10B57000191C80235B051B699BB2BA6853431A1CD4
:10B5800080235B051B699BB29B089BB2081C111CA6
:10B590001A1CFFF745FD031C7B617B69002B00D063
:10B5A00007E18C4B02221A7003E1BB68181CFFF7FD
:10B5B0003BFD031C7B617B69002B00D0FBE07B68BB
:10B5C000002B12D13B68002B0BD1FB681B78042B9E
:10B5D00003D1804B07221A70EDE07E4B05221A70D2
:10B5E000E9E07C4B04221A70E5E07A4B03221A70E2
:10B5F000E1E080235B051B699BB2BA6853431C1CC6
:10B60000764B5B6901330CD0744B5A6980235B0520
:10B610001B699BB2101C191C05F0F4FD031C013BB7
:10B6200003E080235B055B69013B802252051269C0
:10B6300092B253431A1C7B68201C111C1A1CFFF782
:10B64000EFFC031C7B617B69002B00D0B5E03B68FD
:10B65000002B0BD1FB681B78042B03D15D4B06221A
:10B660001A70AAE05B4B05221A70A6E0594B04221F
:10B670001A70A2E080235B051B699BB2BA685A432B
:10B680007B689B00D218FB685B88D3181C1C534B4B
:10B690005B6901330CD0514B5A6980235B051B69F0
:10B6A0009BB2101C191C05F0ADFD031C013B03E00F
:10B6B00080235B055B69013B80225205126992B2CF
:10B6C0005A437B689B00D218FB685B88D3181A1C0E
:10B6D0003B68201C111C1A1CFFF7A2FC031C7B6199
:10B6E0007B69002B00D06AE0FB681B78042B03D138
:10B6F000384B06221A7062E0364B05221A705EE063
:10B7000080235B051B699BB2BA685A437B689B0028
:10B71000D318191CFB681A69FB685B889B089BB2ED
:10B72000081C111C1A1CFFF77BFC031C7B617B6946
:10B73000002B46D17B68002B06D13B68002B03D140
:10B74000244B07221A703CE0224B06221A7038E084
:10B75000224B5B6901330CD0204B5A6980235B0577
:10B760001B699BB2101C191C05F04CFD031C013B0E
:10B7700003E080235B055B69013B8022520512696F
:10B7800092B25A4380235B051B699BB2101C191CA3
:10B7900005F038FD031C181CFFF746FC031C7B61F9
:10B7A0007B69002B0FD10B4B07221A700BE0C046B0
:10B7B0000AE0C04608E0C04606E0C04604E0C046D5
:10B7C00002E0C04600E0C0467B69181CBD4607B0D9
:10B7D00090BDC0469B2C0020C01E0200001000102F
:10B7E00080B58EB000AF0F237B637F4B1B781A1C94
:10B7F000131C9B009B189B007B4A9B1804333B63E4
:10B800003B6BDB68FB623B6B1B78042B3AD0052B50
:10B8100000D1A9E0022B00D0D9E03B6B1B69BB62D1
:10B82000724B1B889B027B623B6B5B881A1C7B6A9A
:10B83000D31A3B62BA6A7B6AD318BB623B6B9B88A4
:10B840001A1C7B6AD318FA6AD318FB623A6A684BEF
:10B850009A420BD8F96A3B6A9B08BA6A081C111C09
:10B860001A1CFFF7DDFB031C7B63B1E0F96ABA6ABF
:10B8700080235B00081C111C1A1CFFF7D1FB031C62
:10B880007B63A5E03B6B99683B1C1E33594808223B
:10B89000090141188A1812881A803B6B99683B1C71
:10B8A0001C3354480822090141188A1852881A800A
:10B8B0003B6B9B684F4A1B01D31804331B68BB6169
:10B8C000BA69FB6A9A420AD13B1C1E331B883A1C98
:10B8D0001C3212885A433B6B5B889A4203D03B6B05
:10B8E0009B68022B14D180235B051B699BB2F86A0D
:10B8F000191C05F087FC031C1A1C3C4B1B88D31831
:10B900007B617B69181CFFF78FFB031C7B635FE087
:10B9100080235B051B699BB2F86A191C05F072FC59
:10B92000031C7B6180235B051B699BB27A695343CF
:10B93000FA6AD31A9B083B617B695A1C80235B051A
:10B940001B699BB25A433B6B5B88191CFB6ACB1883
:10B95000D31A9B08FB60386B79693A69FB68FFF77B
:10B96000C9FD031C7B6333E080235B051B699BB22D
:10B97000F86A191C05F046FC031CBB603B6B9B88F6
:10B980001A1CFB6AD21880235B051B699BB2B9683D
:10B990004B43D31A9B087B60BB685A1C80235B0512
:10B9A0001B699BB25A433B6B9B88191CFB6AC918E5
:10B9B0003B6B5B88CB18D31A9B083B60386BB9682C
:10B9C0007A683B68FFF796FD031C7B6300E0C04686
:10B9D0007B6B002B02D1044B01229A707B6B181CED
:10B9E000BD460EB080BDC046C42B0020982C002060
:10B9F000FF0300009C2C002080B582B000AFFFF751
:10BA000067FB404B00221A803F4B5B6901330CD02F
:10BA10003D4B5A6980235B051B699BB2101C191CA6
:10BA200005F0F0FB031C023B03E080235B055B6930
:10BA3000023B80225205126992B25A43334B1A607C
:10BA4000334B00221A8000237B601FE0314B7A6861
:10BA500012010021D1502F497A68082312018A1857
:10BA6000D31800221A802B497A68082312018A18F9
:10BA7000D31800229A8027497A68082312018A186D
:10BA8000D31800225A807B6801337B607B68002BCF
:10BA9000DCD0214B08221A701B4B5B6901330CD0A0
:10BAA000194B5A6980235B051B699BB2101C191C3A
:10BAB00005F0A8FB031C013B03E080235B055B69E9
:10BAC000013B80225205126992B25A4380235B05E2
:10BAD0001B699BB2101C191C05F094FB031C181C5D
:10BAE000FFF7A2FA031C3B603B68002B05D10B4B10
:10BAF00001229A700A4B01221A703B68181CBD463D
:10BB000002B080BD902C002000100010942C00206A
:10BB1000982C00209C2C00209B2C0020C42B002063
:10BB20009A2C002090B585B000AF786039607B4BCF
:10BB30001B7801225340DBB2002B01D00823E9E03F
:10BB40007B68002B01D10E23E4E03B68002B01D180
:10BB50000E23DFE07B681B68002B01D10E23D9E0A8
:10BB60007B689A8880235B051B699BB29A4203D845
:10BB70007B689B880F2B01D80723CBE07B68DB8891
:10BB8000002B3DD07B68DB887A68928853431A1C6F
:10BB9000634B1B68D418634B5B6901330CD0614B5A
:10BBA0005A6980235B051B699BB2101C191C05F0A8
:10BBB00029FB031C013B03E080235B055B69013B20
:10BBC00080225205126992B253439C4218D87B6876
:10BBD000DB887A6892885A4380235B051B699BB295
:10BBE0009A420FDD80235B051B699AB27B689B88B4
:10BBF000101C191C05F04AFB0B1C9BB2002B01D03A
:10BC0000072387E07B689A88032313409BB2002BAD
:10BC100001D007237EE0444B1B88012B01D1042374
:10BC200078E0414B1B881A1C3B681A603C4B1A6831
:10BC30003B685A603C4B1B88181C3B685A683B4960
:10BC40000301CB1804331A60374B1B881A1C7B681E
:10BC50001968364B1201D150334B1B88191C7B6875
:10BC60009A883248082309014118CB181A802E4BB4
:10BC70001B88191C7B68DA882C48082309014118A5
:10BC8000CB185A803B1C0E3300221A807B689B889D
:10BC90007A68D2885343BB603B1C0E333A1C0E3289
:10BCA000128801321A8080235B051B699BB21A1C23
:10BCB000BB689A4207D280235B051B699BB2BA68B6
:10BCC000D31ABB6001E00023BB6080235B051B69C6
:10BCD0009BB21A1C124B1B68D218114B1A6080239E
:10BCE0005B051B699BB21A1CBB689A42D4D90E4BE8
:10BCF0001B881A1C0D49082312018A18D3183A1CF4
:10BD00000E3212889A80084B1B8801339AB2064B78
:10BD10001A800023181CBD4605B090BD9A2C002047
:10BD2000942C002000100010902C00209C2C00204F
:10BD3000B0B586B000AFF8607A603B1C0A330A1CCD
:10BD40001A80334B1B7801225340DBB2002B01D009
:10BD5000082358E0FB68002B01D10E2353E07B68D9
:10BD6000002B01D10E234EE0FB681B68002B06D18F
:10BD7000FB681A68274B1201D358002B01D1072307
:10BD800041E03B1C1033FA6803CA03C33B1C103369
:10BD90005A683B1C0A331988FB6818681D4C082335
:10BDA00000012018C3181B884B43D2183B1C1033CA
:10BDB0005A603B1C10335A683B1C10331B681549F2
:10BDC0001B01CB18043319683B1C10331868114C45
:10BDD000082300012018C3185B88181C3B1C103373
:10BDE0001C680C4D082324012C19E3181B884343BD
:10BDF000CB189A4201D3072305E07B683A1C103226
:10BE000003CA03C30023181CBD4606B0B0BDC0461C
:10BE10009A2C00209C2C0020B0B586B002AFF860B0
:10BE2000B960111C1A1CBB1D19803B1D1A804B4B9D
:10BE30001B7801225340DBB2002B01D0082388E09D
:10BE4000BB68002B01D10E2383E0FB68002B01D1DE
:10BE50000E237EE0FB681B68002B06D1FB681A6886
:10BE60003F4B1201D358002B01D1072371E0FB682F
:10BE70005A68FB681B683A491B01CB1804331968E0
:10BE8000FB681868364C082300012018C3185B882B
:10BE9000181CFB681C68324D082324012C19E31878
:10BEA0001B884343CB189A4201D3072351E0BB1DA3
:10BEB0001B88002B0BD0FB681A6829490823120144
:10BEC0008A18D3181B88BA1D12889A4201D90723F1
:10BED0003FE0BB1D1A883B1D1B88D218FB68196800
:10BEE0001F48082309014118CB181B889A4201DD1D
:10BEF00007232EE0BB68181CFFF79AF8031C0122E9
:10BF00005340DBB2002B0AD13B1D1B88181CFFF7E6
:10BF10008FF8031C01225340DBB2002B01D0102309
:10BF200017E0FB685B68181CFFF782F8031C01220E
:10BF30005340DBB2002B01D010230AE0F968BA6845
:10BF4000BB1D1B88381D008800900220FFF7E8F811
:10BF5000031C181CBD4604B0B0BDC0469A2C00207E
:10BF60009C2C0020B0B586B002AFF860B960111CFF
:10BF70001A1CBB1D19803B1D1A804B4B1B780122DC
:10BF80005340DBB2002B01D0082388E0BB68002BB4
:10BF900001D10E2383E0FB68002B01D10E237EE04C
:10BFA000FB681B68002B06D1FB681A683F4B120127
:10BFB000D358002B01D1072371E0FB685A68FB6856
:10BFC0001B683A491B01CB1804331968FB681868D1
:10BFD000364C082300012018C3185B88181CFB6826
:10BFE0001C68324D082324012C19E3181B88434395
:10BFF000CB189A4201D3072351E0BB1D1B88002BAD
:10C000000BD0FB681A682949082312018A18D31833
:10C010001B88BA1D12889A4201D907233FE0BB1D35
:10C020001A883B1D1B88D218FB6819681F48082313
:10C0300009014118CB181B889A4201DD07232EE025
:10C04000BB68181CFEF7F4FF031C01225340DBB24F
:10C05000002B0AD13B1D1B88181CFEF7E9FF031CAF
:10C0600001225340DBB2002B01D0102317E0FB6804
:10C070005B68181CFEF7DCFF031C01225340DBB297
:10C08000002B01D010230AE0F968BA68BB1D1B8899
:10C09000381D008800900520FFF742F8031C181C8B
:10C0A000BD4604B0B0BDC0469A2C00209C2C002098
:10C0B000B0B586B002AFF860B960111C1A1CBB1D88
:10C0C00019803B1D1A80544B1B7801225340DBB270
:10C0D000002B01D008239AE0BB68002B01D10E236E
:10C0E00095E0FB68002B01D10E2390E0BB681B6834
:10C0F000002B06D1BB681A68484B1201D358002B9D
:10C1000001D1072383E0BB685A68BB681B684349B9
:10C110001B01CB1804331968BB6818683F4C08230F
:10C1200000012018C3185B88181CBB681C683B4DB5
:10C13000082324012C19E3181B884343CB189A4287
:10C1400001D3072363E0BB1D1B88002B0BD0BB680A
:10C150001A683249082312018A18D3181B88BA1D9D
:10C1600012889A4201D9072351E0BB1D1A883B1D52
:10C170001B88D218BB681968284808230901411890
:10C18000CB181B889A4201DD072340E0FB68181C8E
:10C19000FEF74EFF031C01225340DBB2002B0AD1F5
:10C1A0003B1D1B88181CFEF743FF031C0122534054
:10C1B000DBB2002B01D0102329E0BB685B68181CA0
:10C1C000FEF736FF031C01225340DBB2002B01D0E7
:10C1D00010231CE03B1D1A88BB685B68D3181A1C2F
:10C1E000BB1D1B88F968081C111C1A1C05F069F896
:10C1F000BB681A68094B1201D458BB1D1988BA686C
:10C20000FB680091101C03210022A0470023181C8A
:10C21000BD4604B0B0BDC0469A2C00209C2C002026
:10C22000B0B586B002AF78600A1CBB1C1A803A4BCE
:10C230001B7801225340DBB2002B01D0082366E0BB
:10C240007B68002B01D10E2361E07B681B68002B0B
:10C2500006D17B681A68314B1201D358002B01D1EB
:10C26000072354E07B685A687B681B682B491B01D5
:10C27000CB18043319687B681868284C0823000120
:10C280002018C3185B88181C7B681C68234D082382
:10C2900024012C19E3181B884343CB189A4201D37D
:10C2A000072334E07B685B68181CFEF7C1FE031CA3
:10C2B00001225340DBB2002B01D0102327E07B6822
:10C2C0005A687B681B6815491B01CB1804331B682F
:10C2D000D21A7B6819681148082309014118CB1844
:10C2E0001B88101C191C04F0D1FF0B1C002B01D063
:10C2F00007230CE07A68BB1C1B88002100910420F6
:10C30000111C0022FEF70CFF031CFB60FB68181CCD
:10C31000BD4604B0B0BDC0469A2C00209C2C002025
:10C3200080B582B000AF78600B4B1B780122534080
:10C33000DBB2002B01D008230AE07B68002B01D17F
:10C340000E2305E0054B5B781A1C7B681A600023FE
:10C35000181CBD4602B080BD9A2C0020C42B0020C2
:10C360007EDF7047181CC0467FDF7047181CC04630
:10C3700081DF7047181CC046A9DF7047181CC046F3
:10C38000AADF7047181CC04680B582B000AF786045
:10C390007B680122111C99400B1C1A1C034B1B6863
:10C3A0001A43024B1A60BD4602B080BDB82D002072
:10C3B00080B582B000AF78607B680122111C994083
:10C3C0000B1CDA43034B1B681A40024B1A60BD4634
:10C3D00002B080BDB82D002080B582B000AF78607B
:10C3E0007B680122111C99400B1C1A1C044B1B6812
:10C3F00013405A1E9341DBB2181CBD4602B080BDEB
:10C40000B82D002080B582B000AF786010497A68FE
:10C41000131C5B009B189B0000225A500C487A6842
:10C420000821131C5B009B189B00C3185B1800229B
:10C430005A7007487A680821131C5B009B189B0000
:10C44000C3185B1800229A70BD4602B080BDC0467A
:10C45000A42D002080B582B000AF786018487A68BB
:10C460000821131C5B009B189B00C3185B1801225A
:10C470009A7013487A680821131C5B009B189B0074
:10C48000C3185B18012252421A800D487A680821AD
:10C49000131C5B009B189B00C3185B18FF22DA700B
:10C4A0007A68131C5B009B189B00054A9B18181C9C
:10C4B00000210722FBF7CEFEBD4602B080BDC0467C
:10C4C000982D002080B582B000AF78607A68131C88
:10C4D0005B009B18DB001A1C10321B4BD318013376
:10C4E000181C00210622FBF7B5FE7A68131C5B00BE
:10C4F0009B18DB00144A9B18181C00211022FBF724
:10C50000A9FE11487A681021131C5B009B18DB0000
:10C51000C3185B18FF221A700B487A681021131C8D
:10C520005B009B18DB00C3185B18FF22DA717B6885
:10C53000181CFFF73DFF054B7A6892000021D1508F
:10C54000BD4602B080BDC046C82C0020AC2C0020E7
:10C5500080B584B000AF3A60BB1D021C1A807B1D01
:10C560000A1C1A700823FB600023BB602DE01B48E7
:10C57000BA680821131C5B009B189B00C3185B184A
:10C580009B787A1D12781340DBB2002B1AD0BB1DAA
:10C590001A88134B9A420DD01048BA680821131C10
:10C5A0005B009B189B00C3185B181B88BA1D128880
:10C5B0009A4205D13B68BA681A600023FB6007E025
:10C5C0000523FB60BB680133BB60BB68002BCED08A
:10C5D000FB68181CBD4604B080BDC046982D0020E5
:10C5E000FFFF000090B585B000AF78603960354B33
:10C5F000FB600023BB605CE03348BA681021131C69
:10C600005B009B18DB00C3185B18DB79FF2B4DD157
:10C610003B681B78022B2AD02B48BA681021131CC8
:10C620005B009B18DB00C3185B18DB790222934385
:10C63000D9B2254CBA681020131C5B009B18DB0094
:10C64000E3181B180A1CDA711F48BA681021131C62
:10C650005B009B18DB00C3185A183B68111C1A1C9E
:10C660000723081C111C1A1C04F02BFE17E01648A7
:10C67000BA681021131C5B009B18DB00C3185B1801
:10C68000DB7901229343D9B20F4CBA681020131CF6
:10C690005B009B18DB00E3181B180A1CDA71BB68EF
:10C6A000DAB27B681A700023FB6005E0BB680133D7
:10C6B000BB60BB68062B9FD9FB68181CBD4605B044
:10C6C00090BDC04643800000C82C002080B586B0D5
:10C6D00000AF78607B689AB210493B1C0C33081C91
:10C6E000111C1A1CFFF724FB031C7B617B69002BC8
:10C6F0000ED13B1C0C33181C5C21FFF791FD031C71
:10C700007B617B69002B03D17B68181CFFF7DAFE85
:10C710007B69181CBD4606B080BDC046B02D002008
:10C7200080B584B000AF786039600523FB600023DA
:10C73000BB601AE0BA68131C5B009B18DB001A1C74
:10C7400010320E4BD2187B68101C191C072204F003
:10C75000A9FD031C002B05D13B68BA681A600023B1
:10C76000FB6005E0BB680133BB60BB68062BE1D909
:10C77000FB68181CBD4604B080BDC046C82C002014
:10C7800080B586B000AFF860B9607A60054B1B6871
:10C790007B61F868B9687A687B699847BD4606B0DE
:10C7A00080BDC046A42D002080B584B000AF786065
:10C7B0000F4A7B68101C01211A1CFFF7C9FE031CDD
:10C7C000FB60FB68002B0CD17B681A6809480821C4
:10C7D000131C5B009B189B00C3185B1802229A7005
:10C7E00001E00423FB60FB68181CBD4604B080BD5B
:10C7F000FFFF0000982D002080B582B000AF786068
:10C800007B681A6809480821131C5B009B189B0071
:10C81000C3185B189B78012B04D07B681B68181C1D
:10C82000FFF718FEBD4602B080BDC046982D00201F
:10C8300080B584B000AFF860B960111C1A1CBB1D34
:10C8400019803B1D1A800023181CBD4604B080BD12
:10C8500090B587B000AF78600A1CFB1C1A707B682B
:10C860009B781A1C4A493B1C0833081C111C1A1CD3
:10C87000FFF75EFA031C3B613B69002B00D084E0AC
:10C880007B685B781A1C43480821131C5B009B18CB
:10C890009B00C3185B189B781A1C4023134003D1DC
:10C8A000FB1C1B78022B02D13B4B7B6108E0FB1C7D
:10C8B0001B78012B02D1394B7B6101E0384B7B6146
:10C8C0007B689B781A1C131C5B009B18DB00354AA5
:10C8D0009B183A1C08327C69101C191C1822002372
:10C8E000A047031C3B613B69002B32D1FB1C1B782A
:10C8F000022B2ED07B685B781A1C7B685B78191C36
:10C90000244C08200B1C5B005B189B00E3181B18D1
:10C910009B7840218B43D9B21E4C0820131C5B002E
:10C920009B189B00E3181B180A1C9A707B685B78A5
:10C930001A1C131CDB009B1A9B001B4A9B183A1CF9
:10C9400008327C69101C191C1C221823A047031CE8
:10C950003B61FB1C1B78022B17D07B681B781A1CD1
:10C9600012480821131C5B009B189B00C3185B181E
:10C970009B781A1C0E4B9200D358391C08317A68E8
:10C98000081C111C9847031C3B61BD4607B090BDB5
:10C99000B02D0020982D002065BF010019BE0100B8
:10C9A00031C80100C82C0020702D0020A42D0020CB
:10C9B000DC1E020080B582B000AF786039600023D1
:10C9C000181CBD4602B080BD90B587B000AF78603E
:10C9D00039603B1C0E3306221A803B685B781A1CB8
:10C9E0004A480821131C5B009B189B00C3185B1866
:10C9F00019883A1C08323B1C0E33081C111C1A1CE7
:10CA0000FFF7BEFC031C3B613B69002B00D078E0C4
:10CA10003B685B781A1C131C5B009B189B003C4A0C
:10CA20009B18191D3B1C0E331B883A1C0832081C2E
:10CA3000111C1A1C04F036FC031C002B1ED13B6891
:10CA40005B781A1C31480821131C5B009B189B0063
:10CA5000C3185B189B781A1C0223134051D13B6802
:10CA60005B781A1C131C5B009B189B00284A9B18C0
:10CA7000181C00210C22FBF7EDFB42E03B685B78C1
:10CA80001A1C2349131C5B009B189B005B58002B4E
:10CA900002D0204B7B6101E01F4B7B613B685B78E0
:10CAA0001A1C3B1C0E331B88181C1949131C5B00F5
:10CAB0009B189B0058503B685B781A1C131C5B004A
:10CAC0009B189B00124A9B18191D3B1C0E331B8898
:10CAD0003A1C0832081C111C1A1C04F0F2FB3B68BB
:10CAE0005B781A1C131C5B009B189B00084A9B1860
:10CAF0007A687C69101C191C0C223423A047031C83
:10CB00003B610023181CBD4607B090BD982D002046
:10CB10008C2D002065BF010019BE010080B582B0D8
:10CB200000AF786039600023181CBD4602B080BD9C
:10CB300080B584B000AF786039607A683B68101CBB
:10CB4000191CFFF741FF031CFB60FB68002B07D19A
:10CB50007A683B68101C191CFFF7E0FF031CFB60A0
:10CB6000FB68181CBD4604B080BDC04680B582B0CD
:10CB700000AF786039600023181CBD4602B080BD4C
:10CB800080B584B000AF786039603B685B781A1C70
:10CB9000131C5B009B189B00134A9A187B68101C9F
:10CBA000191C0C223423FFF783FA031CFB60FB687B
:10CBB000002B14D13B685B781A1C0B49131C5B00DB
:10CBC0009B189B005B58013309D13B685B781A1CAA
:10CBD0000549131C5B009B189B0000225A50FB6800
:10CBE000181CBD4604B080BD8C2D002080B582B0DD
:10CBF00000AF786039600023181CBD4602B080BDCC
:10CC000080B584B000AF786039607A683B68101CEA
:10CC1000191CFFF7B5FF031CFB60FB68002B07D155
:10CC20007A683B68101C191CFFF7E0FF031CFB60CF
:10CC3000FB68181CBD4604B080BDC04680B582B0FC
:10CC400000AF78600023181CBD4602B080BDC0460E
:10CC500080B586B000AF786000233B613B1C0E338B
:10CC600000221A807B685B781A1C3049131C5B0019
:10CC70009B189B005B58002B36D07B685B781A1C96
:10CC80002B480821131C5B009B189B00C3185B18E2
:10CC90009B78DBB25BB2002B26DA7B685B781A1CD0
:10CCA00023480821131C5B009B189B00C3185B18CA
:10CCB0009B781A1C4023134016D17B685B781A1CA2
:10CCC000131C5B009B189B00184A9B1804333B61A4
:10CCD0007B685B781A1C1549131C5B009B189B0032
:10CCE0005A583B1C0E331A807B685B781A1C10481C
:10CCF0000821131C5B009B189B00C3185B18198844
:10CD00003A693B1C0E331B88081C111C1A1CFFF7C8
:10CD100033FB031C7B617B69002B01D0054B7B61DE
:10CD20007B69181CBD4606B080BDC0468C2D002016
:10CD3000982D00204180000080B582B000AF78605F
:10CD40000023181CBD4602B080BDC04680B584B02B
:10CD500000AF78607B68181CFFF77AFF031CFB604C
:10CD6000FB68002B05D17B68181CFFF7E5FF031C4F
:10CD7000FB60FB68181CBD4604B080BD90B585B053
:10CD800000AF78607B685B781A1C3A480821131C56
:10CD90005B009B189B00C3185B1819887B681B7885
:10CDA0001A1C131C5B009B189B00334A9B1804330E
:10CDB000081C191CFFF7D4FA031CFB60FB68002B4E
:10CDC00053D17B681B781A1C7B681B78191C2A4C72
:10CDD00008200B1C5B005B189B00E3181B185B789A
:10CDE00001210B43D9B2244C0820131C5B009B1873
:10CDF0009B00E3181B180A1C5A707B685B781A1C8E
:10CE00007B685B78191C1B4C08200B1C5B005B18B3
:10CE10009B00E3181B189B7804210B43D9B2154CD7
:10CE20000820131C5B009B189B00E3181B180A1CAE
:10CE30009A707B685B781A1C7B685B78191C0D4CB8
:10CE400008200B1C5B005B189B00E3181B189B78E9
:10CE500020218B43D9B2074C0820131C5B009B1880
:10CE60009B00E3181B180A1C9A70FB68181CBD462F
:10CE700005B090BD982D0020A42D002090B599B04C
:10CE800000AFF8607A603B603B1C0B330A1C1A70E1
:10CE9000CF4B1B68002B00D197E13B6F5C2B00D977
:10CEA00093E13B1C5F3301221A703B1C3833181C82
:10CEB00001F078F9031C3B653B6DFB64FB6C002BB8
:10CEC00007D0F96CC34AC44B081C111C1A1CFBF791
:10CED0009FFB3B1C383300221A703B1C3C33002262
:10CEE0001A703B1C30333A685A603B1C30333A6F3F
:10CEF0001A600023BB6522E0BB6D9AB2B7493B1CA8
:10CF00002833081C111C1A1CFEF712FF031C3B657A
:10CF10003B6D002B10D1FA683B1C2833101C191CE8
:10CF2000082204F0BFF9031C002B05D1BB6DDAB257
:10CF30003B1C38339A7005E0BB6D0133BB65BB6D9C
:10CF4000062BD9D93B1C38339B78FF2B00D13CE111
:10CF50003B1C0B331B78042B0CD13B6F5C2B04D197
:10CF60003B1C3C3320221A70F4E03B1C3C33402233
:10CF70001A70EFE03A689A4BD31A181C182104F083
:10CF800041F9031CBB64BB6C062B23D83B1C3C3310
:10CF90003A1C30325A607B68002B10D13B1C38336E
:10CFA0009B78181CFFF718FA031C01225340DBB2D0
:10CFB000002B04D03B1C5F3300221A70CAE03B1CDC
:10CFC00038339B78181CFFF7F3F93B1C3C332022C5
:10CFD0001A70BFE03A68834BD31A181C1C2104F066
:10CFE00011F9031CBB64BB6C002B36D13B1C3C33DA
:10CFF0003A1C30325A603B1C3C3320221A70BB6C06
:10D00000DAB23B1C38335A703B1C10330022DA6012
:10D010003B1C1033744A1A61BA6C131CDB009B1A58
:10D020009B00704A9A183B1C10331A603B1C383323
:10D030009B781A1C131C5B009B18DB00684A9A182B
:10D040003B1C10335A603B1C30333A1C10325A6080
:10D050003B1C303318221A607CE03A68634BD31AC9
:10D06000181C0C2104F0CEF8031CBB64BB6C002B15
:10D070002AD13B1C3C3330221A70BB6CDAB23B1C09
:10D0800038335A703B1C38330122DA705848BA6C76
:10D090000821131C5B009B189B00C3185B189B782E
:10D0A0001A1C0223134055D13B1C38335B781A1CE1
:10D0B000131C5B009B189B004C4A9B18181C0021FA
:10D0C0000C22FBF7C7F845E03B1C5F3300221A70C7
:10D0D0003B1C3C3340221A703A68464B9A4208D1B6
:10D0E0003B1C0B3304221A703B1C5F3301221A7065
:10D0F00030E03B1C38339B781A1C3F4B9200D258CF
:10D100003B689A4226D13B1C5F3301221A703B1CBC
:10D110003C333A1C30325A6000237B6517E03B1CDD
:10D1200038339978324C7A6D0820131C5B009B18B9
:10D130009B00E3181B18DB78994205D17B6DDAB2AE
:10D140003B1C38335A7005E07B6D01337B657B6D8A
:10D15000002BE4D03B1C5F331B78002B35D03B1CED
:10D160000B331B78042B09D13B1C3C331B78032267
:10D170001343DAB23B1C3C331A7017E03B1C0B33F1
:10D180001B78032B09D13B1C3C331B780122134332
:10D19000DAB23B1C3C331A7008E03B1C3C331B7872
:10D1A00002221343DAB23B1C3C331A703B1C3C3363
:10D1B0003A1C30325A60391C38313A1C3C327B6898
:10D1C000081C111C1A1CFFF7DBFABD4619B090BDF4
:10D1D000A42D00205B050000101F0200B02D0020D0
:10D1E000C82C0020702D0020BC2D00208C2D00208C
:10D1F000982D00200C1F0200AC2C002080B588B0B8
:10D2000000AF78607B68002B01D14D4B94E0002388
:10D21000BB6106E0BB69181CFFF7F4F8BB6901337A
:10D22000BB61BB69002BF5D00023BB6106E0BB6985
:10D23000181CFFF70FF9BB690133BB61BB69002BF9
:10D24000F5D0404B181C00210C22FBF703F80023FB
:10D25000BB6106E0BB69181CFFF734F9BB690133F9
:10D26000BB61BB69062BF5D93B1C10335C229A804D
:10D270003B1C10330722DA803B1C1033324A1A6001
:10D280003A1C1032314B101C191CFEF74BFC031CCE
:10D29000FB61FB69002B4ED12D4B01221A707B687C
:10D2A0001B7801225340DBB2002B35D00023BB6139
:10D2B0002EE0BB699AB225493B1C0833081C111C9F
:10D2C0001A1CFEF735FD031CFB61FB69002B17D10F
:10D2D000BA69131C5B009B18DB001E4A9A183B1CA2
:10D2E0000833101C191C18220023FEF7E1FE031C52
:10D2F000FB61FB69002B08D0154B00221A701AE065
:10D30000134B00221A70C04615E0BB690133BB61A4
:10D31000BB69062BCDD90EE03B1C10339B883A1C11
:10D320001032D28853439BB2084A101C191CFEF7D6
:10D3300077FF031CFB61FB69181CBD4608B080BD6C
:10D340000E8000008C2D00207DCE0100B02D00202D
:10D35000D42D0020C82C002080B584B000AF7860A8
:10D3600039601E4B1B7801225340DBB2002B01D0E9
:10D370001B4B2FE07B68002B01D11A4B2AE03B6846
:10D38000002B01D1174B25E03B681B68002B01D116
:10D39000144B1FE0144B1B68002B18D13B681A6814
:10D3A000114B1A6010493A6805230431D21805233D
:10D3B000081C111C1A1C03F084FF3B681A790A4BE5
:10D3C0009A727B6800221A700023FB6001E0074B11
:10D3D000FB60FB68181CBD4604B080BDD42D002046
:10D3E000088000000E800000A42D002004800000B2
:10D3F00090B585B000AF7860854B1B780122534013
:10D40000DBB2002B01D0834BFEE07B68002B01D107
:10D41000814BF9E07B681B78002B0AD17B681B7875
:10D420001A1C7E49131C5B009B189B005B58002B49
:10D4300001D1784BE8E07B685B78002B0DD17B68ED
:10D440005B781A1C76480821131C5B009B189B0014
:10D45000C3185B189B78012B01D1724BD4E06D4B44
:10D46000FB607B685B781A1C6D480821131C5B000D
:10D470009B189B00C3185B189B781A1C022313404F
:10D4800000D1C0E07B689B78FF2B0DD17B685B7877
:10D490001A1C63480821131C5B009B189B00C318CF
:10D4A0005B18DB78FF2B34D07B685B781A1C5C48F8
:10D4B0000821131C5B009B189B00C3185B18DA78CB
:10D4C0007B689A707B685B781A1C55480821131C8E
:10D4D0005B009B189B00C3185B1818887B685B78FF
:10D4E0001A1C131CDB009B1A9B001A1C10324E4B9B
:10D4F000D318991C7B685B781A1C131CDB009B1AE1
:10D500009B00494A9B181A1CFEF732FF031CFB6064
:10D5100079E07B685B781A1C131C5B009B189B00EE
:10D520003F4A9B183A1C0B32101C191CFFF75AF883
:10D53000031CFB60FB68002B65D17B685B781A1CC1
:10D540003B1C0B331978364C0820131C5B009B18CE
:10D550009B00E3181B180A1CDA703B1C0B331A786B
:10D560007B689A707B681B781A1C2C480821131C56
:10D570005B009B189B00C3185B185B781A1C012387
:10D5800013403AD07B685B781A1C7B685B78191C67
:10D59000234C08200B1C5B005B189B00E3181B1836
:10D5A0009B7820210B43D9B21D4C0820131C5B0033
:10D5B0009B189B00E3181B180A1C9A707B681B7849
:10D5C0001A1C7B681B78191C144C08200B1C5B0070
:10D5D0005B189B00E3181B185B7802210B43D9B240
:10D5E0000E4C0820131C5B009B189B00E3181B18B3
:10D5F0000A1C5A700023FB6005E07B68181CFFF7CB
:10D60000BDFB031CFB60FB68181CBD4605B090BD4C
:10D61000D42D0020088000000E800000A42D0020E2
:10D62000982D002010800000702D002080B582B061
:10D6300000AF786039603C4B1B7801225340DBB26D
:10D64000002B01D0394B6AE07B68002B01D1384BAD
:10D6500065E03B68002B01D1354B60E07B681B78AF
:10D66000002B0AD17B681B781A1C3249131C5B0003
:10D670009B189B005B58002B01D12C4B4FE07B6823
:10D680005B78002B0DD17B685B781A1C2A48082137
:10D69000131C5B009B189B00C3185B189B78012B25
:10D6A00001D1264B3BE07B685B781A1C224808219D
:10D6B000131C5B009B189B00C3185B189B781A1CFB
:10D6C000042313400FD17B685B781A1C1A48082189
:10D6D000131C5B009B189B00C3185B189B781A1CDB
:10D6E0002023134003D03B6801221A7016E07B68A8
:10D6F0005B781A1C10480821131C5B009B189B00C8
:10D70000C3185B189B78DBB25BB2002B03DA3B6873
:10D7100002221A7002E03B6800221A700023181CD3
:10D72000BD4602B080BDC046D42D00200880000058
:10D730000E800000A42D0020982D002010800000F5
:10D7400080B588B000AF78603960674B1B780122E4
:10D750005340DBB2002B01D0644BC1E07B68002B4F
:10D7600001D1634BBCE03B68002B01D1604BB7E0BB
:10D770003B681B68002B01D15D4BB1E03B689B68A7
:10D78000002B01D15A4BABE07B681B78002B0AD1F0
:10D790007B681B781A1C5749131C5B009B189B0065
:10D7A0005B58002B01D1514B9AE00023FB61002311
:10D7B000BB613B1C173300221A7000233B6182E0DF
:10D7C0003B1C173300221A700023FB6023E04A48F9
:10D7D000FA680821131C5B009B189B00C3185B1898
:10D7E000DB781A1C3B699A4212D14348FA68082137
:10D7F000131C5B009B189B00C3185B189B781A1CBA
:10D800000223134004D03B1C173301221A7005E099
:10D81000FB680133FB60FB68002BD8D03B1C17333F
:10D820001B7801225340DBB2002B49D03B681B7BA5
:10D830001A1CBB699A421DD930483A691021131C41
:10D840005B009B18DB00C3185B18DB791A1C0123F3
:10D8500013400FD13B689A68BB699B00D2183969A5
:10D860000B1C5B005B18DB0024495B181360BB6971
:10D870000133BB613B681B791A1CFB699A421FD9B3
:10D880001E483A691021131C5B009B18DB00C3186B
:10D890005B18DB791A1C0223134011D13B681A680C
:10D8A000FB699B00D21839690B1C5B005B18DB001D
:10D8B000191C1031114BCB181360FB690133FB614C
:10D8C0003B6901333B613B69062B00D878E7FB6974
:10D8D000DAB23B681A71BB69DAB23B681A7300238B
:10D8E000181CBD4608B080BDD42D00200880000063
:10D8F0000E800000A42D0020982D0020C82C0020B0
:10D9000080B582B000AF78603960024B181CBD460C
:10D9100002B080BD9080000080B584B000AF786018
:10D920001F4B1B7801225340DBB2002B01D01D4B53
:10D9300031E07B68002B01D11B4B2CE07B681B780E
:10D94000002B0AD17B681B781A1C1849131C5B003A
:10D950009B189B005B58002B01D1124B1BE07B688E
:10D960009B78062B0DD87B689B781A1C10481021D9
:10D97000131C5B009B18DB00C3185B18DB79FF2BC3
:10D9800001D10C4B07E07B689B78181CFEF79EFECC
:10D99000031CFB60FB68181CBD4604B080BDC0467C
:10D9A000D42D0020088000000E800000A42D00204F
:10D9B000C82C00201080000080B584B000AF7860D3
:10D9C000204B1B7801225340DBB2002B01D01E4BB1
:10D9D00033E07B68002B01D11C4B2EE07B681B7869
:10D9E000002B0AD17B681B781A1C1949131C5B0099
:10D9F0009B189B005B58002B01D1134B1DE00023AB
:10DA0000FB600023BB6014E01248BA681021131CAD
:10DA10005B009B18DB00C3185B18DB79FF2B05D07C
:10DA2000BB68181CFEF752FE031CFB60BB68013389
:10DA3000BB60BB68062BE7D9FB68181CBD4604B069
:10DA400080BDC046D42D0020088000000E8000005C
:10DA5000A42D0020C82C002080B586B000AF7860CF
:10DA60003960474B1B7801225340DBB2002B01D0B9
:10DA7000444B81E07B68002B01D1434B7CE03B6849
:10DA8000002B01D1404B77E07B681B78002B0AD13B
:10DA90007B681B781A1C3D49131C5B009B189B007C
:10DAA0005B58002B01D1374B66E07B685B78002B1D
:10DAB0000DD17B685B781A1C35480821131C5B006C
:10DAC0009B189B00C3185B189B78012B01D1314B2D
:10DAD00052E07B689B78062B0DD87B689B781A1CDC
