:020000021000EC
:106000000040002095610100D5610100D7610100C9
:106010000000000000000000000000000000000080
:10602000000000000000000000000000D961010035
:106030000000000000000000DB610100DD610100E4
:10604000E1610100E3610100E5610100E761010038
:10605000E961010000000000417701007564010062
:10606000EF610100F1610100F3610100F5610100E0
:10607000F7610100F9610100FB610100FD610100B0
:10608000FF610100F18E01000362010000000000C9
:106090003D8F01000762010091F001000B620100D9
:1060A0000D6201000F62010000000000000000000E
:1060B00000000000000000000000000000000000E0
:1060C00010B5064C2378002B07D10548002802D0D4
:1060D000044800E000BF0121217010BD54240020BD
:1060E000000000008CFE010008B5084B002B03D017
:1060F0000748084900E000BF07480168002903D0AD
:10610000064A002A00D0904708BDC04600000000A3
:106110008CFE0100582400205024002000000000C4
:10612000164B002B00D1144B9D46402292029A1A26
:10613000924600218B460F461348144A121A09F062
:106140002FFB0F4B002B00D098470E4B002B00D09D
:1061500098470020002104460D4600200C490022EB
:10616000002309F069F809F009F92046294601F0F1
:10617000B3F909F0C3F8C046000008000040002051
:10618000000000000000000054240020082C002023
:106190001DF301000948026803210A43026008490F
:1061A000084A094B9B1A05DD002408591051043494
:1061B0009C42FADB0548804705480047240500401B
:1061C00098FE0100002000205024002029620100D8
:1061D00021610100FEE7FEE7FEE7FEE7FEE7FEE7DE
:1061E000FEE7FEE7FEE7FEE7FEE7FEE7FEE7FEE787
:1061F000FEE7FEE7FEE7FEE7FEE7FEE7FEE7FEE777
:10620000FEE7FEE7FEE7FEE7FEE7FEE7FEE7FEE766
:1062100080B500AF024B034A1A60BD4680BDC04640
:10622000042000200024F40080B500AF00F01EF828
:10623000031C002B06D00A4B0A4A1A600A4B802224
:1062400012021A6000F052F8031C002B05D08023C4
:10625000DA05C123DB000121D150BD4680BDC04617
:1062600004050040DFFF07C0186C004080B500AF98
:106270001A4B1A68FF231340012B2AD1184B1A68B6
:106280000F23134025D1174B1A68F023134006D172
:10629000154B1A68F023134001D101231AE0114B6A
:1062A0001A68F0231340102B06D10F4B1A68F02305
:1062B000134001D101230DE00A4B1A68F02313406B
:1062C000302B06D1084B1A68F023134001D101236B
:1062D00000E00023181CBD4680BDC046E00F00F062
:1062E000E40F00F0E80F00F0EC0F00F080B500AF15
:1062F0000D4B1A68FF231340012B11D10B4B1A6869
:106300000F2313400CD10A4B1A68F0231340402B83
:1063100006D1084B1A68F023134001D1012300E095
:106320000023181CBD4680BDE00F00F0E40F00F014
:10633000E80F00F0EC0F00F026DF7047181CC04695
:106340002ADF7047181CC0462BDF7047181CC04658
:1063500080B584B000AF021CBB1D1A80BB1D1A881B
:106360003B4B9A4204D93B1C0F3364221A7068E0FD
:10637000BB1D1A88374B9A4212D9BB1D1B883A2283
:1063800052425343344A9B18181C642108F0F2FE11
:10639000031CDAB23B1C0F3364218A1A1A7050E0D6
:1063A000BB1D1A882D4B9A4213D9BB1D1A88131C8A
:1063B00092009B1ADB002A4A9B18181CA02108F0A7
:1063C000D9FE031CDAB23B1C0F332A218A1A1A7039
:1063D00037E0BB1D1A88234B9A4214D9BB1D1A887B
:1063E000131C92009B1A9B001F4A9B18181C962393
:1063F000590008F0BFFE031CDAB23B1C0F33122118
:106400008A1A1A701DE0BB1D1A88184B9A4214D9BB
:10641000BB1D1A88131C92009B1A5B00144A9B1820
:10642000181CAA23590008F0A5FE031CDAB23B1C75
:106430000F3306218A1A1A7003E03B1C0F33002227
:106440001A703B1C0F331B78181CBD4604B080BD6E
:10645000B70B0000540B0000B0A70200B40A000004
:10646000E00F01008809000070800000340800007F
:106470003039000090B585B000AF2B4A80235B0017
:10648000D358002B4CD0284A80235B000021D150E8
:10649000254AA123DB00D2583B1C0F331A70224B34
:1064A00001225A603B1C0F331B789622D2005343C3
:1064B000181CFF2108F05EFE031C9BB21A1C520040
:1064C000D3189AB23B1C0C330F32FF321A803C1C9B
:1064D0000B343B1C0C331B88181CFFF739FF031CC3
:1064E0002370124A3B1C0B331B78101C191C07F03D
:1064F000EDFB031C7B607B68002B11D07B68082BB5
:106500000ED07A680A4B9A420AD07A68094B9A42AE
:1065100006D07A68084B101C53211A1C00F0D0F9E1
:10652000BD4605B090BDC04600700040202B002045
:10653000043000000134000070FB010080B584B01D
:1065400000AF294AC1239B000121D150264A274B85
:106550001821D150244A80235B000021D150224AC7
:10656000A023DB000121D1500720FFF7E9FE031C27
:10657000FB60FB68BB60BB68002B06D0BA681C4B95
:10658000101C69211A1C00F09BF907200321FFF75A
:10659000DBFE031CFB60FB687B607B68002B06D086
:1065A0007A68134B101C6C211A1C00F089F9072023
:1065B000FFF7C2FE031CFB60FB683B603B68002BDF
:1065C00006D03A680A4B101C6F211A1C00F078F9AB
:1065D000054A80235B000021D150034B01221A6041
:1065E000BD4604B080BDC0460070004004050000F8
:1065F00070FB010080B582B000AF7860A023DB059E
:106600007A68C132FF3292000321D150BD4602B0F8
:1066100080BDC04680B582B000AF7860A023DA05A7
:106620007B6801219940024BD150BD4602B080BD2C
:106630000C05000045DF7047181CC04647DF704757
:10664000181CC04680B584B000AFF860B960111C5A
:106650001A1CFB1D1970BB1D1A70BB1D1B78002B6B
:1066600011D1A023DA05BB680121081C9840031C46
:10667000191C1E4BD1501E4BFA684532FF32920056
:106680001C49D15011E0A023DA05BB680121081C88
:106690009840031C191CA123DB00D150144BFA684D
:1066A0004532FF3292001449D150C046C046C04620
:1066B0000F4BFA6892000121D1500D4BBA681102BC
:1066C000FA1D127812041143BA1D127812050A43FA
:1066D00003211143FA684532FF329200D150C0467F
:1066E000C046C046BD4604B080BDC0460C05000093
:1066F00000600040031F0200031F010080B500AFCF
:106700000E4A0F4B0021D1500C4AA123DB0000217F
:10671000D1500A4AA223DB000921D150074B0122A4
:10672000DA60064AA823DB000649D150034A8023D9
:106730009B000121D150BD4680BDC0460090004065
:1067400004050000841E000080B584B000AF144A28
:10675000144B0020111C1A1CFFF770FF031CFB6078
:10676000FB68BB60BB68002B06D0BA680E4B101CE0
:1067700055211A1C00F0A4F80120FFF75BFF031C51
:10678000FB60FB687B607B68002B06D07A68064B59
:10679000101C59211A1C00F093F8BD4604B080BDAE
:1067A000409100400C60004080FB010080B500AFCC
:1067B0000320122103220123FFF744FFBD4680BDC1
:1067C00080B500AF1220FFF715FFFFF7BDFFFFF701
:1067D00095FFFFF7EBFF024B01221A60BD4680BD1B
:1067E0000090004080B500AF054A064B0021D15013
:1067F000054B01225A601220FFF70CFFBD4680BDF9
:10680000006000401C0500000090004080B500AF13
:10681000BFF34F8F024B034ADA60BFF34F8FFEE79F
:1068200000ED00E00400FA0573DF7047181CC04655
:1068300076DF7047181CC04678DF7047181CC046CA
:106840007ADF7047181CC0467CDF7047181CC046B2
:1068500060DF7047181CC04680B582B000AF78601A
:10686000FB1C1970BB1C1A70A023DB05BA1C127824
:106870001204111CFA1C1278920011437A68C1327A
:10688000FF329200D150BD4602B080BD80B582B0CB
:1068900000AF7860A023DA05A223DB00D2587B6822
:1068A000DA4001231340181CBD4602B080BDC0462B
:1068B00034DF7047181CC04640DF7047181CC046C4
:1068C00080B584B000AFF860B9607A60FFF79EFFD2
:1068D000BD4604B080BDC04680B582B000AF021C8A
:1068E0003960BB1D1A80BB1D1A8805493B68081C0E
:1068F000111C1A1CFFF7E4FFBD4602B080BDC04664
:10690000EFBEADDE80B582B000AF78607A68044B30
:10691000101CAA211A1CFFF7D3FFBD4602B080BD90
:106920008CFB010080B584B000AF78607B681B7879
:10693000002B13D10B4B1B88181C3B21FFF778FF52
:10694000031CFB60FB68BB60BB68002B06D0BA6809
:10695000054B101CB5211A1CFFF7B2FFBD4604B051
:1069600080BDC046E22400208CFB010080B582B0CF
:1069700000AF7860FFF7E2FDBD4602B080BDC046C3
:1069800080B584B000AF7860104B1B889BB2104A72
:10699000101C191C08F08CF8031CFB60FB68002B12
:1069A00011D0FB68082B0ED0FA680A4B9A420AD025
:1069B000FA68094B9A4206D0FA68084B101CE82185
:1069C0001A1CFFF77DFFBD4604B080BDD424002013
:1069D0008424002004300000013400008CFB0100FE
:1069E00080B582B000AF0A1CFB1D011C1970BB1DD5
:1069F0001A70BB1D1B78012B38D1FB1D1B78102B87
:106A000002D0112B12D022E01A4B1B889BB202330A
:106A10009AB2184B1A80174B1B889AB296235B00C8
:106A20009A4220D9134B3C221A801CE0114B1B8840
:106A30009BB2023B9AB20F4B1A800E4B1B889BB243
:106A40003B2B12D80B4B962252001A800DE0FB1DF7
:106A5000197885235A00084B081C111C1A1CFFF7D3
:106A60002FFFC04602E0C04600E0C046BD4602B06F
:106A700080BDC046D42400208CFB010080B588B0C6
:106A800002AF244B0022009200200521062202F0D2
:106A90005BFA031C7B617B693B613B69002B08D07F
:106AA00039698F235A001C4B081C111C1A1CFFF754
:106AB00007FF1A4A1A4B101C01211A1C02F0FCFA9B
:106AC000031CFB60FB68BB60BB68002B08D0B96887
:106AD00092235A00104B081C111C1A1CFFF7F0FEE1
:106AE000104A114B101C01211A1C02F0E5FA031C7C
:106AF000FB60FB687B607B68002B07D079680B4AE2
:106B0000054B081C111C1A1CFFF7DAFEBD4606B027
:106B100080BDC046E42400208CFB0100D824002066
:106B20006D690100DC240020816901002901000059
:106B300080B588B000AF3B1D1A780F218A43012130
:106B40000A431A703B1D19780F220A4010210A438C
:106B50001A70304B181C08F0AFFE031C9BB2391D95
:106B60002C4A081C111C1A1CFFF76EFE031CFB614B
:106B7000FB69BB61BB69002B07D0B969264A274B6B
:106B8000081C111C1A1CFFF79BFE254B181CFFF755
:106B900053FE031CFB61FB697B617B69002B08D002
:106BA0007969A0235A001D4B081C111C1A1CFFF701
:106BB00087FE3B1C0833181C0021082208F0F0FD5A
:106BC0003B1C0833C82252001A803B1C0833C822E1
:106BD00092005A803B1C083300229A803B1C0833E9
:106BE000C8225200DA803B1C0833181CFFF728FE2D
:106BF000031CFB61FB693B613B69002B07D03969D2
:106C0000084A064B081C111C1A1CFFF759FEBD460A
:106C100008B080BD98FB01003D0100008CFB010025
:106C2000410300004B01000080B594B000AF3B1C55
:106C30000F3306221A703A1C2B4B111C1A1C0C2302
:106C4000081C111C1A1C08F03BFC3B1C1033181CC0
:106C50000021382208F0A4FD3B1C103302221A70D8
:106C60003B1C103301229A703B1C103301229A8086
:106C70003B1C10333A1C0F329A603B1C103303222A
:106C80001A833B1C10333A1CDA613B1C1033181C6E
:106C9000002103F043F8031CFB64FB6CBB64BB6C7A
:106CA000002B08D0B96CB6235A00104B081C111CDD
:106CB0001A1CFFF705FE0E4B181C0021142208F0C9
:106CC0006FFD0B4B00221A70094B00225A60084BD3
:106CD00000221A72064B28221A82054B00225A8281
:106CE000BD4614B080BDC046A8FB01008CFB01006E
:106CF0007024002080B5A0B000AFFB1D03221A70E5
:106D00003B1C5C33181C0021142208F049FD3B1C7D
:106D10005C3300221A713B1C5C33FA1D9A603B1CE9
:106D20005C331A7B0F218A4301210A431A733B1CEF
:106D30005C33197B0F220A4010210A431A733B1C53
:106D40005C335A7B0F218A435A733B1C5C33597B5B
:106D50000F220A405A733B1C5C339A7B0F218A43F3
:106D60009A733B1C5C33997B0F220A409A733B1C3D
:106D70005C33DA7B0F218A4301210A43DA733B1C1F
:106D80005C33D97B0F220A4010210A43DA733B1C83
:106D90005C331A7C0F218A431A743B1C5C33197CC8
:106DA0000F220A401A74624A3B1C5C33101C191CE7
:106DB00007F028FE031CFB67FB6FBB67BB6F002B54
:106DC00007D0B96F5B4A5C4B081C111C1A1CFFF7FB
:106DD00077FD3B1C4833181C0021142208F0E0FC0E
:106DE0003B1C48335A7B0F218A4301210A435A73C3
:106DF0003B1C4833597B0F220A4010210A435A7327
:106E00003B1C48339A7B0F218A4301210A439A7322
:106E10003B1C4833997B0F220A4010210A439A7386
:106E20003B1C4833DA7B0F218A43DA733B1C48331F
:106E3000D97B0F220A40DA733B1C48331A7C0F219E
:106E40008A4301210A431A743B1C4833197C0F22E0
:106E50000A4010210A431A743B1C483300221A606E
:106E60003B1C483301221A713B1C483300229A60B4
:106E70003B1C483364221A73304A3B1C4833101CB5
:106E8000191C06F0E9FE031CFB67FB6F7B677B6F39
:106E9000002B07D0796F2A4A274B081C111C1A1C9B
:106EA000FFF70EFD3B1C0833181C0021402208F0A0
:106EB00077FC3A1C0832234B101C191C07F026FFE4
:106EC0003A1C08323C23D15C0F208143012001434E
:106ED000D1543A1C08323C23D05C0F2101401020D1
:106EE0000143D1543A1C08323D23D15C0F20814329
:106EF000D1543A1C08323D23D05C0F210140D154BB
:106F00003B1C0833181C07F07BF9031CFB67FB6F65
:106F10003B673B6F002B08D0396FDB235A00064BD1
:106F2000081C111C1A1CFFF7CBFCBD4620B080BD0D
:106F300084240020970100008CFB0100202B0020FE
:106F4000A9010000B4FB010080B58AB000AF3B1D71
:106F5000181C00211C2208F023FC3B1D00221A6093
:106F60003B1DA02292025A603B1DF02212039A6040
:106F70003B1D03221A73114B9A893B1DDA813B1D7D
:106F800001221A743B1D0E4A5A613B1D0D4A9A613B
:106F90003B1D181C02F0E0FF031C7B627B6A3B6216
:106FA0003B6A002B07D0396A074A084B081C111CA2
:106FB0001A1CFFF785FCBD460AB080BD8424002062
:106FC0002569010005690100CF0100008CFB01006B
:106FD00080B586B000AFF860B9607A607B687B618D
:106FE0007B69002B07D07969054A064B081C111CE8
:106FF0001A1CFFF765FC0023181CBD4606B080BDB7
:10700000DB0100008CFB010080B588B000AF03F00D
:1070100067FE031CFB61FB69BB61BB69002B08D0E9
:10702000B969F5235A00344B081C111C1A1CFFF7D0
:1070300047FC1120FFF72AFC031C5A425341DAB2E5
:107040003B1C0C331A703B1C0C33181C05F0A0F8C9
:10705000031CFB61FB697B617B69002B08D07969AC
:10706000F8235A00244B081C111C1A1CFFF728FC9B
:107070003B1C0633181C0021062208F091FB3B1C28
:107080001E22DA803B1C1A7A01210A431A723B1C29
:107090001A7A02218A431A723B1C1A7A1C218A43EB
:1070A0000C210A431A723B1C1A7A20218A431A7255
:1070B0003B1C07225A723B1C10229A723B1C0F4A3F
:1070C0001A603B1C01221A710D4A3B1C101C191C32
:1070D00005F014F9031CFB61FB693B613B69002B64
:1070E00007D03969074A044B081C111C1A1CFFF70A
:1070F000E7FBBD4608B080BD8CFB0100D16F0100ED
:10710000E1240020FF01000080B588B000AF2F4BC4
:107110000820191C5022002307F038FF031CFB61D4
:10712000FB69BB61BB69002B08D0B96983239A0056
:10713000274B081C111C1A1CFFF7C2FB3B1D181C17
:107140000021012208F02CFB3B1D1A7801218A4303
:107150001A703B1D181CFFF77BFB031C7B617B69CE
:107160003B613B69002B07D039691A4A184B081C50
:10717000111C1A1CFFF7A4FB174B181C07F060FF2B
:10718000031C7B617B69FB60FB68002B07D0F968FF
:10719000124A0F4B081C111C1A1CFFF791FB104BD5
:1071A000181C07F061FF031C7B617B69BB60BB6837
:1071B000002B07D0B9680B4A054B081C111C1A1C80
:1071C000FFF77EFBBD4608B080BDC046D02700203B
:1071D0008CFB010013020000717401001702000013
:1071E000B97401001B02000080B582B000AF0B4BE8
:1071F0000120191C00F078FB031C7B607B683B605E
:107200003B68002B07D03968054A064B081C111C47
:107210001A1CFFF755FBBD4602B080BDBC270020FD
:10722000230200008CFB010080B582B000AF0D4A44
:107230000D4B101C02211A1C002300F01DFE031C24
:107240007B607B683B603B68002B08D039688D23EE
:107250009A00064B081C111C1A1CFFF731FBBD4697
:1072600002B080BD08200020660600008CFB0100F3
:1072700080B584B000AF1A4B1A6880235B02101CE3
:10728000191C002201F090FF031CFB60FB68BB602F
:10729000BB68002B08D0B96891239A00114B081CD9
:1072A000111C1A1CFFF70CFB0F4B1A6880231B02E2
:1072B000101C191C002201F077FF031CFB60FB6807
:1072C0007B607B68002B07D07968084A054B081C57
:1072D000111C1A1CFFF7F4FABD4604B080BDC0466D
:1072E000D82400208CFB0100DC2400204702000091
:1072F00080B582B000AF0C4B181CFFF795FA031C49
:107300007B607B683B603B68002B07D03968074A8D
:10731000074B081C111C1A1CFFF7D2FAFFF750FA92
:10732000BD4602B080BDC04670240020520200005D
:107330008CFB010080B584B000AF3B1C181C04F02E
:1073400063F9031CFB60FB68BB60BB68002B07D0C4
:10735000B968114A114B081C111C1A1CFFF7B0FA2E
:107360003B68002B03D00E4B01221A7010E0FFF790
:107370009FFA031CFB60FB687B607B68002B07D0D7
:107380007968084A054B081C111C1A1CFFF798FA6B
:10739000BD4604B080BDC046620200008CFB010007
:1073A000E02400206B02000080B584B000AF78605C
:1073B0007B681B88112B1CD0192B1DD0102B2ED1B4
:1073C000FFF710FA1A4BB4221A80FFF751FF00F0B2
:1073D000C5FD031CFB60FB68BB60BB68002B20D0B5
:1073E000B968144A144B081C111C1A1CFFF768FAE0
:1073F00017E0FFF77DFF17E07B689B79002B12D128
:10740000FFF7F0F9102003210322FFF725FA1120DE
:1074100003210322FFF720FAFFF78CFF03E0C046A9
:1074200002E0C04600E0C046BD4604B080BDC04694
:10743000D4240020890200008CFB010080B582B0BA
:1074400000AF78607B68023B012B09D8074B1B78A3
:10745000002B07D0054B00221A70FFF76BFF01E0ED
:10746000C04600E0C046BD4602B080BDE02400201A
:1074700080B582B000AF78607B68181C05F004FE10
:107480000B4A7B68101C191C07F08EF8094A7B68B0
:10749000101C191C06F05AFA7B68181C02F0B8FE82
:1074A0007B68181CFFF780FFBD4602B080BDC04658
:1074B00084240020202B002080B582B000AF7860AB
:1074C0007B68181C03F09EF87B68181CFFF7B6FF5A
:1074D000BD4602B080BDC04680B582B000AFFFF7A8
:1074E000CDFAFFF781FEFFF79FFEFFF70DFEFFF7D6
:1074F0008BFDFFF71DFBFFF797FBFFF7FBFBFFF78C
:1075000023FDFFF7F5FE00E0C046FFF7D5F9031CA9
:107510007B607B683B603B68002BF5D03968044A90
:10752000044B081C111C1A1CFFF7CAF9ECE7C046F3
:10753000030300008CFB010080B582B000AF021C89
:10754000FB1D1A70064BFA1D1278111C1F220A40EF
:107550000121081C9040021C1A60BD4602B080BD8B
:1075600000E100E080B582B000AF021CFB1D1A7084
:10757000084AFB1D1B78191C1F230B400121081C06
:107580009840031C191CC0235B00D150BD4602B0BB
:1075900080BDC04600E100E0B0B582B000AF021C83
:1075A0003960FB1D1A70FB1D1B787F2B32D93049C7
:1075B000FB1D1B781A1C0F231340083B98082C4A0C
:1075C000FB1D1B781C1C0F232340083B9B08063324
:1075D0009B00D3185B68FA1D1278141C032222400A
:1075E000D200FF24251C95402A1CD2431A403B6838
:1075F0009C01FF231C40FB1D1B781D1C03232B40FB
:10760000DB00251C9D402B1C1A43831D9B00CB18BF
:107610005A6029E0174BFA1D127852B292081549A8
:10762000F81D007840B28008C03080004158F81D35
:107630000078041C03202040C000FF24251C854046
:10764000281CC043084039688C01FF210C40F91DFB
:1076500009780D1C03212940C900251C8D40291CD7
:107660000143C0329200D150BD4602B0B0BDC04609
:1076700000ED00E000E100E080B582B000AF78608E
:107680007A68032313405A425341DBB2181CBD46AB
:1076900002B080BD80B586B000AF7860396000234D
:1076A0007B6145E07B690122111C99400B1CFB604A
:1076B0003B68FA68134038D07B68DB68FA6813408F
:1076C00009D180239B023B617B68DA68FB681A431F
:1076D0007B68DA6009E0C0239B023B617B68DB6862
:1076E000FA68D2431A407B68DA60A023DB05A02247
:1076F000D2057969C131FF31890089580F4A11409B
:107700007A69C132FF329200D150A023DB05A0225A
:10771000D2057969C131FF31890089583A6911432D
:107720007A69C132FF329200D1507B6901337B61AB
:107730007B691F2BB6D9BD4606B080BDFFFFFCFF9D
:1077400080B588B000AFA023DA05A223DB00D358B0
:10775000BB613E4ABE235B000021D1503B1C1F335E
:1077600000221A7068E03A4B19683B1C1F331A78E4
:10777000131C9B009B189B00CB183B613B1C1F33C9
:107780001B780122111C99400B1C1A1C314B1B68E1
:1077900013404AD03B69DB68DA43BB695A403B6916
:1077A0001B6813407B613A697B69101C191CFFF749
:1077B00071FFA023DA05A223DB00D258BB69534036
:1077C000FB60FB68002B16D0BA69FB681343BB61F2
:1077D0003B69DB68DA43BB695A403B691B6813406D
:1077E000BB603A69BB68101C191CFFF753FF7A692C
:1077F000BB6813437B61BB69DA433B699B681340F9
:107800007A6913407B603B695B68BA6913407A69A7
:1078100013403B603A687B68134306D03B691B69A1
:1078200039687A68081C111C98473B1C1F333A1CA6
:107830001F32127801321A70074B1B783A1C1F3224
:1078400012789A428FD3BD4608B080BD00600040D8
:1078500028280020202800202528002080B584B07A
:1078600000AF021CFB1D1A700023FB6031E01C4BB3
:107870001968FB1D1A78131C9B009B189B00CB18E2
:107880001B68FA680121081C9040021C13401DD09F
:10789000A023DB05A022D205F968C131FF318900A0
:1078A0008958104A1140FA68C132FF329200D15013
:1078B000A023DB05A022D205F968C131FF31890080
:1078C0008958FA68C132FF329200D150FB68013307
:1078D000FB60FB681F2BCAD9BD4604B080BDC04603
:1078E00028280020FFFFFCFF80B582B000AF021CFB
:1078F0003960FB1D1A703B68002B01D1072337E06C
:107900003B68181CFFF7B8FE031C01225340DBB292
:10791000002B01D007232BE0174B3A681A60174B56
:10792000FA1D12781A70164B00221A70154B00229D
:107930001A60114B1968114B1B781A1C131C9B0001
:107940009B189B00081C00211A1C07F029FF0E4AF7
:10795000C2239B0001214942D1500620FFF702FEBD
:1079600006200121FFF718FE0620FFF7E5FD0023A2
:10797000181CBD4602B080BD282800202428002005
:1079800025280020202800200060004080B584B019
:1079900000AFF860B9607A603B602C4B1B68002B2D
:1079A00001D108234DE03B68002B01D1072348E0BB
:1079B000274B1A78274B1B789A4201D3042340E0C7
:1079C000224B1968224B1B781A1C131C9B009B1816
:1079D0009B00CB18B9687A680A431A601B4B196878
:1079E0001B4B1B781A1C131C9B009B189B00CB186D
:1079F000BA685A60154B1968154B1B781A1C131C72
:107A00009B009B189B00CB187A689A600F4B1968F3
:107A10000F4B1B781A1C131C9B009B189B00CB1848
:107A20003A681A610A4B1B78FA68191C1170013305
:107A3000DAB2074B1A70FB681B78181CFFF70EFFB1
:107A40000023181CBD4604B080BDC0462828002075
:107A5000252800202428002080B586B000AF021C15
:107A6000FB1D1A704D4B1B68002B01D1082391E0C0
:107A70004B4B1B78FA1D12789A4201D3072389E0F9
:107A8000484ABE235B000021D150A023DA05A2237F
:107A9000DB00D358FB60444B1B68002B05D1414AE7
:107AA000C1239B0080210906D150FB1D1B780122B8
:107AB000111C99400B1C1A1C3B4B1B681A433A4B78
:107AC0001A60364B1968FB1D1A78131C9B009B1813
:107AD0009B00CB180022DA6000237B6156E07B69B3
:107AE0000122111C99400B1CBB602C4B1968FB1D1B
:107AF0001A78131C9B009B189B00CB181B68BA6854
:107B0000134040D0FB68BA68134003D0C0239B02E7
:107B10003B6118E080239B023B61204B1968FB1DF1
:107B20001A78131C9B009B189B00CA181B4B1868E3
:107B3000FB1D19780B1C9B005B189B00C318D968B0
:107B4000BB680B43D360A023DB05A022D205796973
:107B5000C131FF3189008958144A11407A69C13214
:107B6000FF329200D150A023DB05A022D205796913
:107B7000C131FF31890089583A6911437A69C132AC
:107B8000FF329200D1507B6901337B617B691F2BEF
:107B9000A5D90023181CBD4606B080BD28280020AA
:107BA000252800200060004020280020FFFFFCFF67
:107BB00080B582B000AF021CFB1D1A70164B1B680B
:107BC000002B01D1082323E0144B1B78FA1D1278F7
:107BD0009A4201D307231BE0FB1D1B78181CFFF7FB
:107BE0003DFEFB1D1B780122111C99400B1CDA4342
:107BF0000B4B1B681A400A4B1A60094B1B68002B81
:107C000005D1084AC2239B0080210906D1500023D8
:107C1000181CBD4602B080BD282800202528002061
:107C2000202800200060004080B584B000AF021C16
:107C30003960FB1D1A70134B1B68002B01D1082300
:107C40001CE0114B1B78FA1D12789A4201D30723CE
:107C500014E00C4B1968FB1D1A78131C9B009B1831
:107C60009B00CB18FB60A023DA05A223DB00D258CF
:107C7000FB681B681A403B681A600023181CBD464D
:107C800004B080BD282800202528002080B582B0BF
:107C900000AF78600A1CFB1C1A70A023DB05FA1CDD
:107CA00012789200111C7A68C132FF329200D150D2
:107CB000BD4602B080BDC04690B585B000AF7860CB
:107CC00039601B4B1B68002B1AD0194B1C687B6852
:107CD00059687B681A783B68DBB2081C111C1A1CB7
:107CE000A047031CFB60FB68BB60BB68002B1CD07B
:107CF000BA68104B101C28211A1CFEF7E1FD14E095
:107D00003B68012B07D17B685B687A681278101C8E
:107D10000121984709E03B68002B06D17B685B682E
:107D20007A681278101C00219847BD4605B090BDB6
:107D300038280020BCFB010080B586B000AF786019
:107D4000324B1A783B1C0833101C191CFFF76CFFD0
:107D5000031C3B613B69002B55D13B1C17330022B0
:107D60001A7049E02A4B1A683B1C17331B78DB005A
:107D7000D318FB60274B1B68FA6812780121081C96
:107D80009040021C134013D0FB685B68002B0FD09F
:107D9000FB685B78012B05D1FB68181C0021FFF7FD
:107DA0008BFF22E0FB68181C0121FFF785FF1CE018
:107DB000184B5B68FA6812780121081C9040021C7D
:107DC000134012D0FB685B68002B0ED0FB685B7819
:107DD000012B05D1FB68181C0121FFF76DFF04E0A2
:107DE000FB68181C0021FFF767FF3B1C17333A1C88
:107DF0001732127801321A70074B1B783A1C17326F
:107E000012789A42AED3BD4606B080BD3C28002011
:107E10002C280020442800203028002080B584B081
:107E200000AF78603960114B1B68181C01F002FA32
:107E3000031CFB60FB68002B14D10D4B7A685A6061
:107E40000B4B3A681A60094B19680A4B1A68786834
:107E50003B680343081C111C1A1C01F0A5F9031C04
:107E6000FB6000E0C046BD4604B080BD4028002055
:107E7000442800203428002080B588B000AFF86086
:107E80007A603B603B1C0B330A1C1A707B68042B26
:107E900001D807234DE0294BFA681A60284B3A1C99
:107EA0000B3212781A70274B7A681A60264B3A68A0
:107EB0001A600023FB6118E03B1C0B331B78DB00CE
:107EC000FA68D318BB61BB691B781A1CBB699B7825
:107ED000101C191CFFF7DAFEBB691B780122111C6C
:107EE00099400B1CFA691343FB613B1C0B331B7855
:107EF0005A1E9341DBB23A1C0B32391C0B31097804
:107F000001391170002BD7D11048F969FA69104B6B
:107F1000FFF73CFD031C7B617B69002B01D07B6973
:107F200007E00C4A0C4B101C00211A1C01F0C4F88D
:107F3000031C181CBD4608B080BDC0462C2800207C
:107F40003028002034280020382800203C28002039
:107F50001D7E010040280020397D010080B500AF62
:107F6000074B1B68002B01D1082305E0054B1B784C
:107F7000181CFFF771FD031C181CBD4680BDC046D0
:107F80002C2800203C28002080B582B000AF0E4B8A
:107F90001B68002B01D1082311E00C4B1B78181C27
:107FA000FFF706FE031C7B607B68002B01D07B681B
:107FB00005E0074B1B68181C01F03CF9031C181C5A
:107FC000BD4602B080BDC0462C2800203C280020C1
:107FD0004028002080B586B000AF021C3960FB1D30
:107FE0001A70274B1B78FA1D12789A4201D9072381
:107FF00041E0244B1A68FB1D1B78DB00D3187B6122
:10800000204B1B68002B01D1082334E01E4B1A784B
:108010003B1C0C33101C191CFFF706FE031C3B61B4
:108020003B69002B01D03B6925E07B695B78002B25
:108030000ED1FA687B691B78DA400123134003D024
:108040003B6800221A7015E03B6801221A7011E0AB
:108050007B695B78012B0DD1FA687B691B78DA406C
:108060000123134003D03B6801221A7002E03B68F1
:1080700000221A700023181CBD4606B080BDC04601
:10808000302800202C2800203C28002080B582B019
:1080900000AF78607A68032313405A425341DBB241
:1080A000181CBD4602B080BD80B582B000AF021C76
:1080B000FB1D1A70064BFA1D1278111C1F220A4074
:1080C0000121081C9040021C1A60BD4602B080BD10
:1080D00000E100E080B582B000AF021CFB1D1A7009
:1080E000074AFB1D1B78191C1F230B400121081C8C
:1080F0009840031C191C8023D150BD4602B080BD9E
:1081000000E100E080B582B000AF021CFB1D1A70D8
:10811000084AFB1D1B78191C1F230B400121081C5A
:108120009840031C191C80235B00D150BD4602B04F
:1081300080BDC04600E100E080B582B000AF021C07
:10814000FB1D1A70084AFB1D1B78191C1F230B40CE
:108150000121081C9840031C191CC0235B00D1504E
:10816000BD4602B080BDC04600E100E0B0B582B0BF
:1081700000AF021C3960FB1D1A70FB1D1B787F2BA2
:1081800032D93049FB1D1B781A1C0F231340083BC2
:1081900098082C4AFB1D1B781C1C0F232340083B0E
:1081A0009B0806339B00D3185B68FA1D1278141CD9
:1081B00003222240D200FF24251C95402A1CD243D2
:1081C0001A403B689C01FF231C40FB1D1B781D1CB3
:1081D00003232B40DB00251C9D402B1C1A43831DD1
:1081E0009B00CB185A6029E0174BFA1D127852B247
:1081F00092081549F81D007840B28008C030800010
:108200004158F81D0078041C03202040C000FF24C2
:10821000251C8540281CC043084039688C01FF217B
:108220000C40F91D09780D1C03212940C900251CAB
:108230008D40291C0143C0329200D150BD4602B08E
:10824000B0BDC04600ED00E000E100E080B582B0C6
:1082500000AF021CFB1D1A70FB1D1B787F2B16D96B
:10826000164AFB1D1B78191C0F230B40083B9B086B
:1082700006339B00D3185A68FB1D1B78191C032377
:108280000B40DB00DA40FF2313409B0911E00C4B4D
:10829000FA1D127852B29208C0329200D258FB1DD9
:1082A0001B78191C03230B40DB00DA40FF2313402B
:1082B0009B09181CBD4602B080BDC04600ED00E021
:1082C00000E100E080B582B000AF7860C046C046F3
:1082D000C046C046C046C046C046C046C046C0466E
:1082E000C046C046C046C0467B68013B7B60002B51
:1082F000ECD1BD4602B080BD80B582B000AF0C4B62
:108300005B68DB05DB0D7B607B68002B0BD07B683B
:10831000103B3B603B68DBB25BB2181CFFF796FF7B
:10832000031CDBB200E00423181CBD4602B080BD74
:1083300000ED00E080B582B000AF7860054AA1236F
:10834000DB007968D15011200321FFF70FFFBD46F4
:1083500002B080BD0010014080B500AF0E4AD123AD
:108360009B0080214902D1500B4AC1239B008021F0
:108370004902D1501120FFF7DFFE1120FFF794FED4
:10838000054B01221A602F20FFF79CFF034B0122AF
:108390001A70BD4680BDC046001001407428002000
:1083A00080B500AF1120FFF795FE104AD2239B0045
:1083B00080214902D1500D4AC2239B0080214902ED
:1083C000D1500A4B01225A602F20FFF77BFF074B49
:1083D00001229A60064B00221A602F20FFF772FFDD
:1083E000044B00221A70BD4680BDC04600100140FB
:1083F000602800207428002080B500AF024A034B9B
:10840000D358181CBD4680BD001001400405000073
:1084100080B582B000AF786039607A683B68D31A63
:108420001B021B0A181CBD4602B080BD80B582B07D
:1084300000AF7860034AA823DB007968D150BD46BD
:1084400002B080BD0010014080B586B000AF7860FA
:108450004C4B19687A68131CDB009B189B00CB18E7
:10846000BB60494B1B68013303D1474B7A681A60E4
:1084700084E0BB685968434B1868434B1A68131C67
:10848000DB009B189B00C3185B6899421ED83D4BCC
:1084900019683D4B1A68131CDB009B189B00CA1817
:1084A000384B1868384B19680B1CDB005B189B00B5
:1084B000C3185968BB685B68CB1A5360324B1A68A3
:1084C000BB681A62304B7A681A6057E0BB685B6819
:1084D000FB602D4B1B687B612B4B1B683B6117E0DE
:1084E000284B19683A69131CDB009B189B00CB18BA
:1084F0005B68FA68D31AFB603B697B61214B1968A2
:108500003A69131CDB009B189B00CB181B6A3B616C
:108510003B6901330BD01B4B19683A69131CDB0014
:108520009B189B00CB185A68FB689A42D8D33B69CA
:10853000013313D0134B19683A69131CDB009B18E5
:108540009B00CA180F4B186839690B1CDB005B18BD
:108550009B00C3185968FB68CB1A5360BB68FA6864
:108560005A60BB683A691A62064B19687A69131C2B
:10857000DB009B189B00CB187A681A62BD4606B0D8
:1085800080BDC046502800205C28002080B586B001
:1085900000AF78603A4B1B687B617B693B610FE001
:1085A0003A697B689A420FD03B697B61354B196809
:1085B0003A69131CDB009B189B00CB181B6A3B61BC
:1085C0003B690133ECD100E0C0463B69013353D035
:1085D0007A693B699A4211D12A4B1968284B1A686B
:1085E000131CDB009B189B00CB181A6A244B1A60E3
:1085F000234B1B68013301D1FFF7D2FE214B1968D1
:108600003A69131CDB009B189B00CB185B68FB606E
:108610001C4B19687A69131CDB009B189B00CA1855
:10862000184B186839690B1CDB005B189B00C318DA
:108630001B6A1362134B19687A69131CDB009B18C1
:108640009B00CB181B6A3B613B69013315D00D4B76
:1086500019683A69131CDB009B189B00CA18094B68
:10866000186839690B1CDB005B189B00C31859683C
:10867000FB68CB18536000E0C046BD4606B080BD25
:108680005C2800205028002080B500AF1120FFF7A3
:1086900039FDBD4680BDC04680B500AF1420FFF750
:1086A00031FDBD4680BDC04680B584B000AF786066
:1086B000124B1B68002B18D0104B1A687B68996905
:1086C0007B68DB69081C191C9047031CFB60FB6876
:1086D000BB60BB68002B0ED0B968094A094B081C67
:1086E000111C1A1CFEF7ECF805E07B689A697B68A0
:1086F000DB69181C9047BD4604B080BD702800207F
:1087000063010000F4FB010080B584B000AF2C4B86
:108710001B68013350D000237B60FFF76DFE021C05
:10872000284B1B68101C191CFFF772FE031CBB6052
:10873000234B1B68FB601EE0234B1968FA68131C6F
:10874000DB009B189B00CB183B603B685A68BB68FA
:108750009A4214D83B685B68BA68D31ABB603B681E
:108760005B687A68D3187B603B681B6AFB603B6878
:10877000181CFFF799FFFB680133DDD100E0C0460C
:10878000124B1A78124B1B789A420CD1104B1B7863
:108790000133DAB20E4B1A700D4B1B78022B02D14B
:1087A0000B4B00221A700A4B1B781A1C094B9200C3
:1087B0007968D150FFF770FFBD4604B080BDC04658
:1087C0005C28002060280020502800206C28002011
:1087D0006D2800206428002080B582B000AF78604A
:1087E000184B1A78184B1B789A4223D0154B1B78DC
:1087F0000133DAB2134B1A70124B1B78022B02D1E1
:10880000104B00221A700F4B1B781A1C0F4B920052
:10881000D2587B681A607B681A680D4B1B68D218A7
:108820000B4B1A600A4B1B681B021A0A084B1A6092
:10883000012303E07B6800221A600023181CBD4658
:1088400002B080BD6C2800206D2800206428002024
:108850006028002080B586B000AF464B1B683B61A6
:108860003B1C1733444A12781A7069E0434B1A686C
:108870003B1C17331B78DB00D318FB603B1C163303
:10888000FA6812781A7054E0FB6859683B1C16337A
:108890001A78131C5B009B18DB00CB18BB603B1CD9
:1088A00016333A1C1632127801321A70FB689B7824
:1088B0003A1C163212789A4203D13B1C163300221E
:1088C0001A70BB681B78022B02D0032B29D02EE034
:1088D0002B4B1968BB685A68131CDB009B189B0064
:1088E000CB187B607B681B7D002B21D0BB685B684D
:1088F000181CFFF74BFE7B6800221A7518E0204B0E
:1089000019681C4B1A68131CDB009B189B00CB18C2
:108910003B603B6800221A753B681A6A154B1A6067
:1089200000E0C046134B1B680133E8D101E000E0D2
:10893000C046FB685B783A1C163212789A42A3D183
:108940003B1C17331B785A1E9341DBB23A1C17327B
:10895000391C1731097801391170002B86D1054B6C
:108960001A683B69D31A5A1E9341DBB2181CBD46E4
:1089700006B080BD5C280020542800205828002024
:108980005028002080B588B000AFF860B9607A60E8
:108990000023FB6142E0254B1968254B1A68131C24
:1089A000DB009B189B00CB18BB61BB695A68FB6856
:1089B0009A4206D9BB695A68FB68D21ABB695A60E9
:1089C00030E0BB695B68FA68D31AFB60BB695B681F
:1089D000FA69D318FB61BB6900225A60BB690022A7
:1089E0001A75134B1B687B61BB691A6A104B1A60BE
:1089F000BB691B69002B11D0BA68FB69D3181B0235
:108A00001A0ABB699A60BB691A69BB69DA607B683C
:108A10001A68BB691A627B687A691A60044B1B6822
:108A20000133B8D1BD4608B080BDC04650280020F3
:108A30005C28002080B58AB000AF7860664B1B6868
:108A4000BB613B1C2733654A12781A70A8E0644B5F
:108A50001A683B1C27331B78DB00D3187B6194E03A
:108A60007B6801330ED07B683B625E4B19683A6AC3
:108A7000131CDB009B189B00CB18FB61FB691B6A76
:108A80007B603DE07B6959687B691B781A1C131C6D
:108A90005B009B18DB00CB183B617B691B780133C3
:108AA000DAB27B691A707B691A787B699B789A4283
:108AB00002D17B6900221A703B695B683B62494BBB
:108AC00019683A6A131CDB009B189B00CB18FB61EA
:108AD0003B691B78012B57D1FB691B7D002B53D1C0
:108AE0003B699A68FB699A603B69DA68FB69DA60FE
:108AF0003B691A69FB691A613B695A69FB69DA616A
:108B0000FB699A68384B1B68D31A1B021A0A374B49
:108B10009A420ED8FB699A68334B1B68101C191CCB
:108B2000FFF776FC021CFB69DB68D218FB695A6010
:108B300018E02D4B1A68FB699B68101C191CFFF785
:108B400067FC031CFB60FB69DA68FB689A4206D984
:108B5000FB69DA68FB68D21AFB695A6002E0FB69BC
:108B600000225A60FB6900229A60FB690022DA60E9
:108B7000FB6901221A75FB69012252421A623B6AA3
:108B8000181CFFF761FC00E0C0467B68013300D091
:108B900066E77B691A787B695B789A4200D05FE769
:108BA0003B1C27331B785A1E9341DBB23A1C2732F9
:108BB000391C2731097801391170002B00D046E7A4
:108BC000054B1A68BB69D31A5A1E9341DBB2181CB5
:108BD000BD460AB080BDC0465C2800205428002055
:108BE000582800205028002060280020FEFF7F0029
:108BF00090B589B000AF78602A4B1B6801334BD029
:108C0000294B1968274B1A68131CDB009B189B0023
:108C1000CB185B68FB61FFF7EFFB031CBB61234BC9
:108C20001B687B61BA697B69101C191CFFF7F0FB9C
:108C3000031C03333B611E4B1B7801225340DBB204
:108C4000002B01D0FFF788FBFA693B69934200D201
:108C5000131C7A69D3187B617B691B021B0A7B6139
:108C60007B69181CFFF7E2FBFFF7C6FB031CFB60E8
:108C7000FA68BB69101C191CFFF7CAFB031CDC1C3B
:108C80007A69BB69101C191CFFF7C2FB031C9C42CC
:108C900004D9FFF7F9FC01E0FFF782FBBD4609B0FC
:108CA00090BDC0465C28002050280020602800208D
:108CB0007428002090B587B000AF01235B427B6031
:108CC0001D4B1B683B611D4B1B68FB603C1C0B3440
:108CD0003B1C181CFFF780FD031C23703C1C173441
:108CE000FFF7B8FD031C23703B1C0B331B78002BD4
:108CF0000BD039683A693B1D081C111C1A1CFFF780
:108D000041FE3B1C173301221A707B68181CFFF7C9
:108D100091FE031C002B03D03B1C173301221A7059
:108D20003B1C17331B78002B03D0FB68181CFFF784
:108D30005FFFBD4607B090BD602800205C28002082
:108D400080B582B000AF786039603B68DAB27B688A
:108D50005A70BD4602B080BD80B584B000AF786067
:108D600039607B685B780133FB607B689B781A1CF9
:108D7000FB689A4201D10023FB607B681B781A1CB8
:108D8000FB689A4201D100230EE03B68FA681A6042
:108D90007B6859687B685B781A1C131C5B009B1806
:108DA000DB00CB18BB60BB68181CBD4604B080BD9F
:108DB00080B586B000AFF860B9607A603B601B4B4D
:108DC0001A68FB68DB00D2183B1C1033101C191CFE
:108DD000FFF7C2FF031C7B617B69002B01D10423D9
:108DE00020E07B6901221A707B69BA685A60FFF73C
:108DF00003FB021C7B699A607B697A68DA607B6995
:108E00003A681A617B693A6A5A61084B1A68FB68CA
:108E1000DB00D2183B69101C191CFFF791FFFFF70C
:108E20003BFC0023181CBD4606B080BD582800201E
:108E300080B584B000AF78603960144B1A687B68E5
:108E4000DB00D2183B1C0833101C191CFFF784FFF1
:108E5000031CFB60FB68002B01D1042312E0FB68BC
:108E600002221A70FB683A685A60084B1A687B68DD
:108E7000DB00D218BB68101C191CFFF761FFFFF75D
:108E80000BFC0023181CBD4604B080BD58280020F0
:108E900080B584B000AF7860144B1A687B68DB0043
:108EA000D2183B1C0833101C191CFFF755FF031C7C
:108EB000FB60FB68002B01D1042313E0FB68032255
:108EC0001A70FB68012252425A60084B1A687B688C
:108ED000DB00D218BB68101C191CFFF731FFFFF72D
:108EE000DBFB0023181CBD4604B080BD58280020C1
:108EF00080B500AF104AA0235B000021D1500E4A7C
:108F0000A2235B000021D1500B4AA4235B00002167
:108F1000D150094AA6235B000021D150064A802384
:108F20005B000021D150044A82235B000021D15014
:108F3000FFF7EAFBBD4680BD0010014080B500AFE1
:108F4000FFF7B8FEBD4680BD80B586B000AFF860C3
:108F50007B603B1C0B3319703B1C0A331A707B6817
:108F6000181CFFF793F8031C01225340DBB2002BBF
:108F700001D0072389E07B68002B01D1072384E01F
:108F8000FFF70EFA434B3A6A1A60434B3A1C0B3216
:108F900012781A70414B7A681A6000237B6116E0E0
:108FA0003E4B19687A69131CDB009B189B00CB1899
:108FB00000221A70394B19687A69131CDB009B1860
:108FC0009B00CB1800221A757B6901337B613B1C27
:108FD0000B331A787B699A42E2DC3B1C0B331A781C
:108FE000131CDB009B189B007A68D3187B602C4B0A
:108FF00003221A702B4B7A681A607B6818337B60E7
:1090000000237B6120E0274B1A687B69DB00D318C3
:109010003B613B6900221A703B6900225A703B6930
:109020003A1C0A3212789A703B697A685A603B1C83
:109030000A331A78131C5B009B18DB007A68D3187C
:109040007B607B6901337B617B69022BDBDD164B27
:10905000012252421A60154B00221A70144B002252
:109060001A701420FFF768F814200321FFF77EF828
:109070001420FFF719F8FB68181CFFF75BF9FFF7DE
:10908000BBF9021C0B4B1A600023181CBD4606B02E
:1090900080BDC046702800204C28002050280020A9
:1090A00054280020582800205C2800206C2800202C
:1090B0006D2800206028002080B586B000AFF860E1
:1090C0007A603B1C0B330A1C1A70284B1B68002B60
:1090D00001D1082346E07B68002B01D1072341E042
:1090E000FB68002B01D107233CE000237B6132E0C9
:1090F0001E4B19687A69131CDB009B189B00CB1868
:109100001B78002B24D1194B19687A69131CDB00DA
:109110009B189B00CB1801221A70144B19687A69AE
:10912000131CDB009B189B00CB183A1C0B321278E7
:109130005A700E4B19687A69131CDB009B189B0050
:10914000CB187A689A617A69FB681A60002309E093
:109150007B6901337B61064B1B781A1C7B699A4241
:10916000C6DC0423181CBD4606B080BD5028002074
:109170004C28002080B582B000AFFFF7BDF8031C7B
:10918000012B02D0032B03D005E000237B6005E018
:1091900001237B6002E002237B60C0467B68181CD1
:1091A000BD4602B080BDC04690B589B002AFF86040
:1091B000B9607A601D4B1B68002B01D1082330E099
:1091C0001B4B1B781A1CFB689A4202D9BB68042B04
:1091D00001D8072325E0154B1968FA68131CDB003A
:1091E0009B189B00CB181B78012B01D0082318E09B
:1091F0000E4B1968FA68131CDB009B189B00CB18F8
:109200005B78012B01D1BB6800E000237B61FFF795
:10921000B1FFF968BA687B697C680094FFF7C8FD04
:10922000031C181CBD4607B090BDC0465028002046
:109230004C28002080B582B000AF7860134B1B68CB
:10924000002B01D108231DE0114B1B781A1C7B68F1
:109250009A4201D8072315E00C4B19687A68131C51
:10926000DB009B189B00CB181B78012B01D0082337
:1092700008E0FFF77FFF021C7B68101C191CFFF73A
:10928000D7FD031C181CBD4602B080BD502800202D
:109290004C28002080B500AF074B1B68002B01D184
:1092A000082306E0FFF766FF031C181CFFF7F0FD1C
:1092B000031C181CBD4680BD5028002080B582B01C
:1092C00000AF7860FFF798F8021C7B681A600023F3
:1092D000181CBD4602B080BD80B584B000AFF860F8
:1092E000B9607A60FA68BB68101C191CFFF790F827
:1092F000021C7B681A600023181CBD4604B080BDA8
:1093000072DF7047181CC04679DF7047181CC046D2
:109310007DDF7047181CC04665DF7047181CC046CB
:1093200080B582B000AF021C3960BB1D1A80BB1D26
:109330001B88DAB23B681A703B680133BA1D128889
:10934000120A92B2D2B21A700223181CBD4602B0A1
:1093500080BDC04680B588B000AFF860B9607A6063
:109360003B1C1C337A6812781A703B1C1C331B7828
:1093700002331F2B04DCFB685B7802331F2B01DDFB
:109380000C2383E03B1C1C331B789AB23B1C1E331E
:109390001D218A1A1A803B1C16333A1C1E32128871
:1093A0001A803B1C1C331B780233BA68D2183B1C52
:1093B0001633101C191CFFF7ABFF031CBB61BB6904
:1093C000002B01D0BB6961E0FB681B78022B12D136
:1093D0003B1C16331B883A1C1E3212889A420AD351
:1093E0003B1C1D3309221A703B1C1E333A1C1632DB
:1093F00012881A801AE03B1C1D3308221A70FB6881
:109400005B78002B0CD0FB685B783A1C1E3212880C
:109410009A4205D3FB685A783B1C1E331A8005E03C
:109420003B1C1E333A1C163212881A803B1C1C331C
:109430001B78BA68D3183A1C1E321288D2B2013295
:10944000D2B21A703B1C1C333A1C1C321278013207
:109450001A703B1C1C331B78BA68D3183A1C1D3297
:1094600012781A703B1C1C333A1C1C3212780132E1
:109470001A707B681A783B1C1E331B88DBB2D3182A
:10948000DBB20233DAB27B681A700023181CBD46C7
:1094900008B080BD90B585B000AF786039603B689A
:1094A0001B7804331F2B01DD0C2334E03B1C0A33F3
:1094B000181CFFF729FF031CFB60FB68002B01D081
:1094C000FB6828E03B681B781A1C79688A1803211E
:1094D00011700133DAB23B681A703B681B781A1CB2
:1094E00079688A18192111700133DAB23B681A7051
:1094F0003B681C783B1C0A331A883B681B787968E8
:10950000CB18101C191CFFF70BFF031CE318DAB271
:109510003B681A700023181CBD4605B090BDC046BC
:1095200080B584B000AFF8607A603B603B1C0B33C1
:109530000A1C1A70FB685B68002B01D107233CE012
:109540003B681B789A1CFB681B88D3181F2B01DD16
:109550000C2332E03B681B781A1C79688A18F9687A
:109560000988C9B20131C9B211700133DAB23B685E
:109570001A703B681B781A1C79688A18391C0B31E1
:10958000097811700133DAB23B681A703B681B78B6
:109590007A68D118FB685A68FB681B88081C111C84
:1095A0001A1C05F08DFF3B681A78FB681B88DBB23C
:1095B000D318DAB23B681A700023181CBD4604B0F9
:1095C00080BDC04680B584B000AFB9607A603B1CF6
:1095D0000F33021C1A707B681B7803331F2B01DDCD
:1095E0000C2323E07B681B781A1CB9688A180221B7
:1095F00011700133DAB27B681A707B681B781A1C11
:10960000B9688A180A2111700133DAB27B681A70BE
:109610007B681B781A1CB9688A18391C0F310978C5
:1096200011700133DAB27B681A700023181CBD4632
:1096300004B080BD80B58AB000AFF8607B603B1C91
:109640000B3319703B1C0A331A703B1C2333002266
:109650001A703B1C22333A6B12781A7000237B621B
:109660007FE0FB685A687B6A9B00D3183A1C14326F
:10967000111C1A1C0423081C111C1A1C05F020FFC5
:109680003A1C14323B1C1A33101C191C0022FFF721
:1096900043FE031CFB61FB69002B01D0FB697CE0EE
:1096A0003B1C1A331B783A1C0A3212789A4255D165
:1096B0003B1C23331B78002B01D0002300E0022346
:1096C0003A1C1B3213703B6B1B781A1C3B1C1A3361
:1096D0001B78D2183B1C1B331B78D3181F2B01DDC2
:1096E0000C235AE03B1C23331B7801225340DBB28E
:1096F000002B16D03B6B1B780133DAB23B6B1A7030
:109700003B6B1B781A1C79688A18391C0B31097855
:1097100011700133DAB23B6B1A703B1C2333012208
:109720001A703B6B1B787A68D318391C14313A1CB9
:109730001A32081C111C1A1CFFF7EEFD031CFB61FA
:10974000FB69002B01D0FB6927E03B6B1A783B1CBF
:109750001A331B78D318DAB23B6B1A707B6A013369
:109760007B62FB681B881A1C7B6A9A4200DD78E7E3
:109770003B1C23331B78002B0ED03B1C22331B7861
:109780007A68D3183A6B11783A1C22321278D24395
:10979000D2B28A18D2B21A700023181CBD460AB081
:1097A00080BDC04680B588B002AFF8607B603B1CCE
:1097B0000B3319703B1C0A331A70F9683B1C0B33CE
:1097C0001A787B68386A0090081C111C0222FFF787
:1097D00031FF031C7B617B69002B01D07B6913E0A7
:1097E000F9683B1C0A331A787B68386A0090081CB9
:1097F000111C1022FFF71EFF031C7B617B69002BED
:1098000001D07B6900E00023181CBD4606B080BD76
:1098100080B582B000AF78607B681B88052B0AD9C1
:109820007B681A88C8231B019A4206D97B681A886C
:10983000164B9A4201D0072323E07B685B88052BF7
:109840000AD97B685A88C8231B019A4206D97B68CB
:109850005A880E4B9A4201D0072312E07B681A887F
:109860000A4B9A420CD07B685A88084B9A4207D020
:109870007B681A887B685B889A4201D9072300E0DD
:109880000023181CBD4602B080BDC046FFFF00008B
:1098900090B587B000AFF860B9607A607B681B78DC
:1098A00006331F2B01D90C2343E0FB68181CFFF77C
:1098B000AFFF031C7B617B69002B01D07B6938E023
:1098C0007B681B781A1CB9688A180521117001334E
:1098D000DAB27B681A707B681B781A1CB9688A1820
:1098E000122111700133DAB27B681A707B681C7820
:1098F000FB681A887B681B78B968CB18101C191C88
:10990000FFF70EFD031CE318DAB27B681A707B6860
:109910001C78FB685A887B681B78B968CB18101CC8
:10992000191CFFF7FDFC031CE318DAB27B681A7000
:109930000023181CBD4607B090BDC04690B587B047
:1099400000AFF860B9607A60FB689B88DAB23B1CB4
:10995000173302321A707B681B789A1C3B1C173332
:109960001B78D3181F2B01DD0C234BE07B681B7881
:109970001A1CB9688A18391C173109780131C9B223
:1099800011700133DAB27B681A707B681B781A1C7D
:10999000B9688A18FF2111700133DAB27B681A7036
:1099A0007B681C78FB681A887B681B78B968CB18C1
:1099B000101C191CFFF7B4FC031CE318DAB27B6817
:1099C0001A70FB689B88002B1BD0FB689B68002BE0
:1099D00001D1072316E07B681B78BA68D118FB68B1
:1099E0009A68FB689B88081C111C1A1C05F068FD0E
:1099F0007B681A78FB689B88DBB2D318DAB27B6885
:109A00001A700023181CBD4607B090BD90B589B0F0
:109A100000AFF860B9607A60FB681B6B002B01D166
:109A2000072371E03B1C1F3300221A7063E0FB68C0
:109A3000196B3B1C1F331A78131C5B009B189B008F
:109A4000CB18BB61BB699B88DAB23B1C173302326F
:109A50001A707B681B781A1CB9688A18391C173170
:109A600009780131C9B211700133DAB27B681A701A
:109A70007B681B781A1CB9688A181621117001338B
:109A8000DAB27B681A707B681C78BB691A887B68BD
:109A90001B78B968CB18101C191CFFF741FC031C7C
:109AA000E318DAB27B681A70BB699B88002B1BD065
:109AB000BB699B68002B01D1072325E07B681B78DD
:109AC000BA68D118BB699A68BB699B88081C111CCD
:109AD0001A1C05F0F5FC7B681A78BB699B88DBB221
:109AE000D318DAB27B681A703B1C1F333A1C1F3242
:109AF000127801321A70FA683423D35C3A1C1F3290
:109B000012789A4293D30023181CBD4609B090BD29
:109B100080B588B002AFF860B9607A6000237B61DD
:109B20007B6800221A70FB681B78002B0ED0F96846
:109B3000BA687B68081C111C1A1CFFF70BFC031C7D
:109B40007B617B69002B01D07B69B8E0FB689B7867
:109B5000002B0CD0BA687B68101C191CFFF79AFC0C
:109B6000031C7B617B69002B01D07B69A7E0FB684C
:109B70009B88002B0ED0FB68191DBA687B68081CF7
:109B80000121FFF7CDFC031C7B617B69002B01D019
:109B90007B6994E0FB68DB68002B11D0FB68DB6815
:109BA0001B7859B2BA687B68081C111C1A1CFFF795
:109BB00009FD031C7B617B69002B01D07B697EE082
:109BC000FB681B8A002B11D0FB681A1C1032BB6883
:109BD00079680091101C02210622FFF7E3FD031CA7
:109BE0007B617B69002B01D07B6968E0FB681B8B84
:109BF000002B11D0FB681A1C1832BB6879680091E1
:109C0000101C03210722FFF7CDFD031C7B617B693C
:109C1000002B01D07B6952E0FB681B8C002B11D01C
:109C2000FB681A1C2032BB6879680091101C142153
:109C30001522FFF7B7FD031C7B617B69002B01D068
:109C40007B693CE0FB689B6A002B0FD0FB68996A3C
:109C5000BA687B68081C111C1A1CFFF719FE031C4C
:109C60007B617B69002B01D07B6928E0FB68DB6AA4
:109C7000002B0FD0FB68D96ABA687B68081C111CDE
:109C80001A1CFFF75BFE031C7B617B69002B01D074
:109C90007B6914E0FA683423D35C002B0ED0F9689A
:109CA000BA687B68081C111C1A1CFFF7AFFE031C66
:109CB0007B617B69002B01D07B6900E07B69181C0C
:109CC000BD4606B080BDC04680B582B000AF7860AA
:109CD0007B689B88002B0AD07B689B68002B06D092
:109CE0007B689B681B781A1C0423134001D107234F
:109CF00000E00023181CBD4602B080BD80B582B0D4
:109D000000AF78607B689B88002B01D0072300E0C0
:109D10000023181CBD4602B080BDC04680B596B079
:109D200000AF786039603B1C4B3300221A703B1C3B
:109D30004A3300221A707B68002B1FD07B68181CE6
:109D4000FFF7C2FF031CFB64FB6C002B01D0FB6C14
:109D500046E079683A1C28323B1C4B33081C111C26
:109D60001A1CFFF7D5FE031CFB64FB6C002B01D013
:109D7000FB6C35E03B1C28337B6501E000237B65F1
:109D80003B68002B1FD03B68181CFFF7B7FF031C74
:109D9000FB64FB6C002B01D0FB6C21E039683A1CA2
:109DA00008323B1C4A33081C111C1A1CFFF7B0FE7A
:109DB000031CFB64FB6C002B01D0FB6C10E03B1C14
:109DC00008333B6501E000233B653B1C4B331978AE
:109DD0003B1C4A331B78786D3A6DFFF791FA031CF0
:109DE000181CBD4616B080BD75DF7047181CC046F4
:109DF00076DF7047181CC0467ADF7047181CC046D3
:109E00007BDF7047181CC04680B582B000AF786019
:109E10007B681B781A1C7B6801331B781B029BB282
:109E200013439BB29BB2181CBD4602B080BDC04616
:109E300090B585B000AF78603C1C0E347B68181C70
:109E4000FFF7E2FF031C23803B1C0E331A8801231B
:109E500013405A1E9341DBB2181CBD4605B090BD9D
:109E600080B582B000AF78607B685A88084B1B8849
:109E70009A4207D37B685A88054B5B889A4201D87F
:109E8000012300E00023181CBD4602B080BDC0467F
:109E90009428002080B586B000AF7860294B1A88DE
:109EA000294B9A424AD0294B1B780133DAB2274B0F
:109EB0001A70274B1A7B254B1B789A4215D3214BDE
:109EC0001A88244B101C191CFFF78EFF031C7B61A2
:109ED0007B69002B32D01E4B9B69002B2ED01C4B74
:109EE0009B697A69101C984728E0184B00221A7069
:109EF000174B1B7C002B13D0124B1B88181C3B21CB
:109F0000FFF776FF031C3B613B69002B08D0104B29
:109F10009B69002B04D00E4B9B693A69101C984733
:109F20000B4B5B69002B09D03B1C0C3300221A70D1
:109F3000074B5B693A1C0C32101C9847BD4606B0B3
:109F400080BDC0469E280020FFFF00009C28002006
:109F5000782800209428002090B585B000AF786064
:109F6000214B7A6813CA13C313CA13C312681A6049
:109F70001E4B00221A707B681B68002B15D07B6873
:109F80001B681B4A111C1A1C0823081C111C1A1CD4
:109F900005F096FA164B181CFFF72EFF031CFB600A
:109FA000FB68002B0CD0FB6819E0114B181CFFF765
:109FB00027FF031CFB60FB68002B01D0FB680EE051
:109FC0000C4B012252421A800B4B00221A700B4A92
:109FD0000B4B101C00211A1CFFF76EF8031C181CF9
:109FE000BD4605B090BDC04678280020AC280020B2
:109FF000942800209E2800209C280020A8280020CB
:10A00000959E010080B500AF044B1B68181CFFF73C
:10A0100011F9031C181CBD4680BDC046A8280020AD
:10A0200080B584B000AF274B181CFFF719FF031C45
:10A0300001225340DBB2002B32D0234B1B78002B84
:10A040000CD0224B5B69002B36D03B1D00221A70CE
:10A050001E4B5B693A1D101C98472DE01C4B1B786A
:10A06000002B03D1194B5B68FB6002E0174B9B6828
:10A07000FB60184B1A68FB68101C191C0022FFF7C4
:10A0800093F8031CBB60BB68002B15D00F4B9B697A
:10A09000002B11D00D4B9B69BA68101C98470BE040
:10A0A0000A4B5B69002B07D03B1C01221A70074B3F
:10A0B0005B693A1C101C9847034B00221A70BD467E
:10A0C00004B080BDA0280020AC2800207828002003
:10A0D0009C280020A828002080B582B000AF7860BE
:10A0E0007B689A880B4B1A800B497A680E23D2182A
:10A0F0000823081C111C1A1C05F0E2F9074B00226A
:10A100001A70074BDB89002B01D1FFF789FFBD4691
:10A1100002B080BD9E280020A02800209C2800209E
:10A120007828002080B584B000AF78600E4B012203
:10A1300052421A800D4B00221A700D4B1B68181CDE
:10A14000FFF778F8031CFB60FB68002B08D0094B75
:10A150009B69002B04D0074B9B69FA68101C984739
:10A16000BD4604B080BDC0469E2800209C2800202B
:10A17000A82800207828002080B584B000AF78603F
:10A180007B680633FB60FB681A88144BDB899A42B4
:10A1900021D1FB681B8B022B1DD1FB681A33181CC5
:10A1A000FFF746FE031C002B02D0FFF739FF12E039
:10A1B0000B4B1B68181CFFF73DF8031CBB60BB680A
:10A1C000002B08D0054B9B69002B04D0034B9B69E7
:10A1D000BA68101C9847BD4604B080BD782800209E
:10A1E000A828002080B582B000AF786007497A685F
:10A1F0000623D2180823081C111C1A1C05F060F94C
:10A20000FFF70EFFBD4602B080BDC046A02800206B
:10A2100080B582B000AF78607B681B88112B0DD0B1
:10A2200002DC102B05D018E0122B11D0502B0AD0D5
:10A2300013E07B68181CFFF74FFF0FE07B68181CCA
:10A24000FFF770FF0AE07B68181CFFF795FF05E039
:10A250007B68181CFFF7C6FF00E0C046BD4602B091
:10A2600080BDC04680B584B000AF7860204A7B686E
:10A27000111C1A1C0823081C111C1A1C05F020F9BB
:10A280001B4B181CFFF7B8FD031CFB60FB68002B81
:10A2900029D1184B181CFFF7E3FD031C0122534082
:10A2A000DBB2002B0FD0144B01221A70134B1A880B
:10A2B0000F4B101C191CFFF797FD031CFB60104B84
:10A2C00001221A700FE00F4B5B69002B09D03B1C79
:10A2D000083301221A700B4B5B693A1C0832101CC0
:10A2E00098470023FB60FB68181CBD4604B080BD86
:10A2F00094280020A0280020AC2800209E280020C0
:10A300009C2800207828002021DF7047181CC046B8
:10A3100020DF7047181CC04680B582B000AF78605F
:10A320007A68032313405A425341DBB2181CBD46DE
:10A3300002B080BD80B582B000AF78601D497A68F8
:10A34000131C9B009B189B00CB1800221A71194903
:10A350007A68131C9B009B189B00CB180022DA80A4
:10A3600014497A68131C9B009B189B00CB180C3374
:10A3700001221A600F497A68131C9B009B189B00EE
:10A38000CB18103300221A600A497A68131C9B000C
:10A390009B189B00CB18143300221A6005497A6879
:10A3A000131C9B009B189B00CB1800221A81BD46F2
:10A3B00002B080BDB028002080B582B000AF0F4B46
:10A3C00000221A800E4B00221A700E4B00221A70C7
:10A3D0000C4B00225A700B4B00229A7000237B60BA
:10A3E00006E07B68181CFFF7A5FF7B6801337B60E4
:10A3F0007B68092BF5D9BD4602B080BD84290020B9
:10A4000087290020B028002080B586B000AFB96051
:10A410007A601A1C3B1C0F33011C19703B1C0C3357
:10A420001A803B1C133300221A703D4B5B780A2BB9
:10A430006ED03B4B19783A4B5A783B1C13338A1831
:10A440001A703B1C13331B78092B06D93B1C1333A2
:10A450003A1C133212780A3A1A703B1C13331A78DA
:10A460002F49131C9B009B189B003A1C0F32CB18E2
:10A4700012781A713B1C13331A782949131C9B005C
:10A480009B189B00CB1814337A681A603B1C13335B
:10A490001A7823480821131C9B009B189B00C318A3
:10A4A0005B18BA68043303CA03C33B1C13331A781E
:10A4B0001B49131C9B009B189B003A1C0C32CB18A9
:10A4C0001288DA803B1C13331A781549131C9B0041
:10A4D0009B189B003A1C2032CB1812881A8100234B
:10A4E0007B610F4B9B7801225340DBB2002B08D0DD
:10A4F00000F0EAFA031C7B617B69112B01D1002378
:10A500007B61074B5B780133DAB2054B5A7001E08F
:10A5100004237B617B69181CBD4606B080BDC04624
:10A52000B028002080B582B000AF00237B600A4BCA
:10A530005B78002B0BD000F0C7FA031C7B607B68B4
:10A54000002B04D07B68112B01D100237B607B683A
:10A55000181CBD4602B080BDB0280020B0B586B042
:10A5600002AF7860254B1B781A1C391C0F31234829
:10A57000131C9B009B189B00C3181B790B701F4B6F
:10A580001B781A1C1D49131C9B009B189B00CB18A1
:10A590000C331A681A4B1201D358BB60174B1B7847
:10A5A0001A1C131C9B009B189B001A1C0832134B8F
:10A5B000D318191D114B1B781A1C1048131C9B0033
:10A5C0009B189B00C31814331D680C4B1B781A1C76
:10A5D0000A48131C9B009B189B00C318DB88181C9F
:10A5E0003B1C0F331A787B680090BC68081C111C58
:10A5F0001A1C2B1CA047BD4604B0B0BDB0280020DB
:10A600008829002080B586B000AF786000237B6188
:10A610006E4B9B78002B00D1D5E06C4B00229A70DA
:10A620006B4B1B78082B16D17B68022B03D1684B30
:10A6300000221A7002E0674B00221A70FFF772FFC7
:10A64000031C7B617B69002B00D1B9E07B69181C7E
:10A65000FFF784FFB4E07B68022B03D0032B00D10B
:10A66000A8E0ABE0594B1B781A1C131C9B009B18ED
:10A670009B00564A9B1804333B61574B1B880133A0
:10A680009AB2554B1A803B691B78022B08D1524B6A
:10A690001B889A023B695B889A4201DB012200E039
:10A6A00000223B1C0F331A70197801220A401A70DD
:10A6B0003B691B78052B05D1454B1B78072B01D136
:10A6C000012200E000223B1C0E331A70197801228F
:10A6D0000A401A703B691B78042B05D13C4B1B7850
:10A6E000072B01D1012200E000223B1C0D331A7020
:10A6F000197801220A401A703B691B78042B0CD18F
:10A70000354B1B889A023B695B889A4205DB304BCC
:10A710001B78002B01D1012200E000223B1C0C33EE
:10A720001A70197801220A401A703B1C0E331B78EC
:10A73000002B0ED13B1C0D331B78002B09D13B1C89
:10A740000C331B78002B04D13B1C0F331B78002BE0
:10A7500024D01F4B00221A707B69181CFFF7FEFEE5
:10A760001A4B1B78181CFFF7E5FD1B4B00221A80C3
:10A77000164B5B78013BDAB2144B5A70134B1B78C3
:10A780000133DAB2114B1A70104B1B78092B05D923
:10A790000E4B1B780A3BDAB20C4B1A70FFF7C2FE65
:10A7A000031C7B617B69002B0CD07B69181CFFF7B5
:10A7B000D5FE07E00D20FFF7D1FE04E0C04602E021
:10A7C000C04600E0C046BD4606B080BDB0280020AF
:10A7D00087290020862900208429002090B587B091
:10A7E00000AFF860B9607A603B6003237B61B34BD4
:10A7F0001B78002B0CD17B68002B06D13B68002B0B
:10A8000003D1AE4B02221A7002E0AC4B01221A7047
:10A81000AA4B1B78062B00D93DE19A00A84BD31810
:10A820001B689F46A74B5B6901330CD0A54B5A6947
:10A8300080235B051B699BB2101C191C04F04CFCA7
:10A84000031C013B03E080235B055B69013B802225
:10A850005205126992B25343191C80235B051B6990
:10A860009BB2BA6853431A1C80235B051B699BB2D9
:10A870009B089BB2081C111C1A1CFFF745FD031C0A
:10A880007B617B69002B00D007E18C4B02221A70A0
:10A8900003E1BB68181CFFF73BFD031C7B617B6970
:10A8A000002B00D0FBE07B68002B12D13B68002B13
:10A8B0000BD1FB681B78042B03D1804B07221A7045
:10A8C000EDE07E4B05221A70E9E07C4B04221A7001
:10A8D000E5E07A4B03221A70E1E080235B051B69F7
:10A8E0009BB2BA6853431C1C764B5B6901330CD096
:10A8F000744B5A6980235B051B699BB2101C191CA1
:10A9000004F0EAFB031C013B03E080235B055B6969
:10A91000013B80225205126992B253431A1C7B6894
:10A92000201C111C1A1CFFF7EFFC031C7B617B69C8
:10A93000002B00D0B5E03B68002B0BD1FB681B78E7
:10A94000042B03D15D4B06221A70AAE05B4B052253
:10A950001A70A6E0594B04221A70A2E080235B050E
:10A960001B699BB2BA685A437B689B00D218FB688C
:10A970005B88D3181C1C534B5B6901330CD0514BC3
:10A980005A6980235B051B699BB2101C191C04F0DB
:10A99000A3FB031C013B03E080235B055B69013BD8
:10A9A00080225205126992B25A437B689B00D218EA
:10A9B000FB685B88D3181A1C3B68201C111C1A1CEE
:10A9C000FFF7A2FC031C7B617B69002B00D06AE0CF
:10A9D000FB681B78042B03D1384B06221A7062E007
:10A9E000364B05221A705EE080235B051B699BB223
:10A9F000BA685A437B689B00D318191CFB681A6914
:10AA0000FB685B889B089BB2081C111C1A1CFFF793
:10AA10007BFC031C7B617B69002B46D17B68002B90
:10AA200006D13B68002B03D1244B07221A703CE06F
:10AA3000224B06221A7038E0224B5B6901330CD09E
:10AA4000204B5A6980235B051B699BB2101C191CA3
:10AA500004F042FB031C013B03E080235B055B69C0
:10AA6000013B80225205126992B25A4380235B0552
:10AA70001B699BB2101C191C04F02EFB031C181C34
:10AA8000FFF746FC031C7B617B69002B0FD10B4B4E
:10AA900007221A700BE0C0460AE0C04608E0C04634
:10AAA00006E0C04604E0C04602E0C04600E0C04602
:10AAB0007B69181CBD4607B090BDC04687290020A1
:10AAC00028FC01000010001080B58EB000AF0F23ED
:10AAD0007B637F4B1B781A1C131C9B009B189B00ED
:10AAE0007B4A9B1804333B633B6BDB68FB623B6B2D
:10AAF0001B78042B3AD0052B00D1A9E0022B00D003
:10AB0000D9E03B6B1B69BB62724B1B889B027B626B
:10AB10003B6B5B881A1C7B6AD31A3B62BA6A7B6AFE
:10AB2000D318BB623B6B9B881A1C7B6AD318FA6AEA
:10AB3000D318FB623A6A684B9A420BD8F96A3B6AAF
:10AB40009B08BA6A081C111C1A1CFFF7DDFB031CCA
:10AB50007B63B1E0F96ABA6A80235B00081C111CB0
:10AB60001A1CFFF7D1FB031C7B63A5E03B6B9968C4
:10AB70003B1C1E3359480822090141188A181288C3
:10AB80001A803B6B99683B1C1C335448082209010E
:10AB900041188A1852881A803B6B9B684F4A1B01E8
:10ABA000D31804331B68BB61BA69FB6A9A420AD1A5
:10ABB0003B1C1E331B883A1C1C3212885A433B6BC9
:10ABC0005B889A4203D03B6B9B68022B14D1802395
:10ABD0005B051B699BB2F86A191C04F07DFA031C23
:10ABE0001A1C3C4B1B88D3187B617B69181CFFF730
:10ABF0008FFB031C7B635FE080235B051B699BB2BB
:10AC0000F86A191C04F068FA031C7B6180235B0559
:10AC10001B699BB27A695343FA6AD31A9B083B615A
:10AC20007B695A1C80235B051B699BB25A433B6BB3
:10AC30005B88191CFB6ACB18D31A9B08FB60386B26
:10AC400079693A69FB68FFF7C9FD031C7B6333E050
:10AC500080235B051B699BB2F86A191C04F03CFA5F
:10AC6000031CBB603B6B9B881A1CFB6AD2188023B9
:10AC70005B051B699BB2B9684B43D31A9B087B6089
:10AC8000BB685A1C80235B051B699BB25A433B6B14
:10AC90009B88191CFB6AC9183B6B5B88CB18D31ABD
:10ACA0009B083B60386BB9687A683B68FFF796FD94
:10ACB000031C7B6300E0C0467B6B002B02D1044B7E
:10ACC00001229A707B6B181CBD460EB080BDC04639
:10ACD000B028002084290020FF03000088290020DC
:10ACE00080B582B000AFFFF767FB404B00221A80AF
:10ACF0003F4B5B6901330CD03D4B5A6980235B05A8
:10AD00001B699BB2101C191C04F0E6F9031C023BE2
:10AD100003E080235B055B69023B802252051269D8
:10AD200092B25A43334B1A60334B00221A800023ED
:10AD30007B601FE0314B7A6812010021D1502F490E
:10AD40007A68082312018A18D31800221A802B4926
:10AD50007A68082312018A18D31800229A8027499A
:10AD60007A68082312018A18D31800225A807B6857
:10AD700001337B607B68002BDCD0214B08221A70EA
:10AD80001B4B5B6901330CD0194B5A6980235B055F
:10AD90001B699BB2101C191C04F09EF9031C013B9B
:10ADA00003E080235B055B69013B80225205126949
:10ADB00092B25A4380235B051B699BB2101C191C7D
:10ADC00004F08AF9031C181CFFF7A2FA031C3B606D
:10ADD0003B68002B05D10B4B01229A700A4B0122D4
:10ADE0001A703B68181CBD4602B080BD7C2900204B
:10ADF00000100010802900208429002088290020CC
:10AE000087290020B02800208629002090B585B031
:10AE100000AF786039607B4B1B7801225340DBB276
:10AE2000002B01D00823E9E07B68002B01D10E2321
:10AE3000E4E03B68002B01D10E23DFE07B681B6858
:10AE4000002B01D10E23D9E07B689A8880235B0513
:10AE50001B699BB29A4203D87B689B880F2B01D851
:10AE60000723CBE07B68DB88002B3DD07B68DB8849
:10AE70007A68928853431A1C634B1B68D418634B3F
:10AE80005B6901330CD0614B5A6980235B051B69F8
:10AE90009BB2101C191C04F01FF9031C013B03E0BA
:10AEA00080235B055B69013B80225205126992B2E7
:10AEB00053439C4218D87B68DB887A6892885A434F
:10AEC00080235B051B699BB29A420FDD80235B05E3
:10AED0001B699AB27B689B88101C191C04F040F90E
:10AEE0000B1C9BB2002B01D0072387E07B689A885C
:10AEF000032313409BB2002B01D007237EE0444B79
:10AF00001B88012B01D1042378E0414B1B881A1CBC
:10AF10003B681A603C4B1A683B685A603C4B1B8884
:10AF2000181C3B685A683B490301CB1804331A606C
:10AF3000374B1B881A1C7B681968364B1201D1509D
:10AF4000334B1B88191C7B689A88324808230901F7
:10AF50004118CB181A802E4B1B88191C7B68DA8885
:10AF60002C48082309014118CB185A803B1C0E338A
:10AF700000221A807B689B887A68D2885343BB6022
:10AF80003B1C0E333A1C0E32128801321A80802389
:10AF90005B051B699BB21A1CBB689A4207D28023CF
:10AFA0005B051B699BB2BA68D31ABB6001E0002342
:10AFB000BB6080235B051B699BB21A1C124B1B688C
:10AFC000D218114B1A6080235B051B699BB21A1CB7
:10AFD000BB689A42D4D90E4B1B881A1C0D49082312
:10AFE00012018A18D3183A1C0E3212889A80084B24
:10AFF0001B8801339AB2064B1A800023181CBD46E9
:10B0000005B090BD86290020802900200010001086
:10B010007C29002088290020B0B586B000AFF860F8
:10B020007A603B1C0A330A1C1A80334B1B780122BE
:10B030005340DBB2002B01D0082358E0FB68002B03
:10B0400001D10E2353E07B68002B01D10E234EE08B
:10B05000FB681B68002B06D1FB681A68274B12019E
:10B06000D358002B01D1072341E03B1C1033FA6871
:10B0700003CA03C33B1C10335A683B1C0A331988AC
:10B08000FB6818681D4C082300012018C3181B8892
:10B090004B43D2183B1C10335A603B1C10335A6888
:10B0A0003B1C10331B6815491B01CB18043319686E
:10B0B0003B1C10331868114C082300012018C318DA
:10B0C0005B88181C3B1C10331C680C4D08232401A2
:10B0D0002C19E3181B884343CB189A4201D307234A
:10B0E00005E07B683A1C103203CA03C30023181C16
:10B0F000BD4606B0B0BDC046862900208829002084
:10B10000B0B586B002AFF860B960111C1A1CBB1D47
:10B1100019803B1D1A804B4B1B7801225340DBB238
:10B12000002B01D0082388E0BB68002B01D10E233F
:10B1300083E0FB68002B01D10E237EE0FB681B68D7
:10B14000002B06D1FB681A683F4B1201D358002B25
:10B1500001D1072371E0FB685A68FB681B683A4914
:10B160001B01CB1804331968FB681868364C082398
:10B1700000012018C3185B88181CFB681C68324D3E
:10B18000082324012C19E3181B884343CB189A4247
:10B1900001D3072351E0BB1D1B88002B0BD0FB689C
:10B1A0001A682949082312018A18D3181B88BA1D66
:10B1B00012889A4201D907233FE0BB1D1A883B1D24
:10B1C0001B88D218FB6819681F4808230901411819
:10B1D000CB181B889A4201DD07232EE0BB68181CA0
:10B1E000FFF79AF8031C01225340DBB2002B0AD16F
:10B1F0003B1D1B88181CFFF78FF8031C01225340CE
:10B20000DBB2002B01D0102317E0FB685B68181C31
:10B21000FFF782F8031C01225340DBB2002B01D060
:10B2200010230AE0F968BA68BB1D1B88381D008826
:10B2300000900220FFF7E8F8031C181CBD4604B07C
:10B24000B0BDC0468629002088290020B0B586B050
:10B2500002AFF860B960111C1A1CBB1D19803B1DA0
:10B260001A804B4B1B7801225340DBB2002B01D0DC
:10B27000082388E0BB68002B01D10E2383E0FB6824
:10B28000002B01D10E237EE0FB681B68002B06D14A
:10B29000FB681A683F4B1201D358002B01D10723DA
:10B2A00071E0FB685A68FB681B683A491B01CB18C0
:10B2B00004331968FB681868364C0823000120180D
:10B2C000C3185B88181CFB681C68324D08232401D6
:10B2D0002C19E3181B884343CB189A4201D3072348
:10B2E00051E0BB1D1B88002B0BD0FB681A68294955
:10B2F000082312018A18D3181B88BA1D12889A4293
:10B3000001D907233FE0BB1D1A883B1D1B88D218BB
:10B31000FB6819681F48082309014118CB181B88CE
:10B320009A4201DD07232EE0BB68181CFEF7F4FFEC
:10B33000031C01225340DBB2002B0AD13B1D1B88AA
:10B34000181CFEF7E9FF031C01225340DBB2002B5F
:10B3500001D0102317E0FB685B68181CFEF7DCFFC8
:10B36000031C01225340DBB2002B01D010230AE062
:10B37000F968BA68BB1D1B88381D0088009005203D
:10B38000FFF742F8031C181CBD4604B0B0BDC04610
:10B390008629002088290020B0B586B002AFF86069
:10B3A000B960111C1A1CBB1D19803B1D1A80544B1F
:10B3B0001B7801225340DBB2002B01D008239AE016
:10B3C000BB68002B01D10E2395E0FB68002B01D157
:10B3D0000E2390E0BB681B68002B06D1BB681A687F
:10B3E000484B1201D358002B01D1072383E0BB68DF
:10B3F0005A68BB681B6843491B01CB1804331968A2
:10B40000BB6818683F4C082300012018C3185B88EC
:10B41000181CBB681C683B4D082324012C19E31839
:10B420001B884343CB189A4201D3072363E0BB1D1B
:10B430001B88002B0BD0BB681A6832490823120105
:10B440008A18D3181B88BA1D12889A4201D907237B
:10B4500051E0BB1D1A883B1D1B88D218BB681968B8
:10B460002848082309014118CB181B889A4201DD9E
:10B47000072340E0FB68181CFEF74EFF031C012267
:10B480005340DBB2002B0AD13B1D1B88181CFEF772
:10B4900043FF031C01225340DBB2002B01D01023D9
:10B4A00029E0BB685B68181CFEF736FF031C01220D
:10B4B0005340DBB2002B01D010231CE03B1D1A8847
:10B4C000BB685B68D3181A1CBB1D1B88F968081C75
:10B4D000111C1A1C03F0F4FFBB681A68094B120117
:10B4E000D458BB1D1988BA68FB680091101C032151
:10B4F0000022A0470023181CBD4604B0B0BDC046C2
:10B500008629002088290020B0B586B002AF786077
:10B510000A1CBB1C1A803A4B1B7801225340DBB239
:10B52000002B01D0082366E07B68002B01D10E239D
:10B5300061E07B681B68002B06D17B681A68314B81
:10B540001201D358002B01D1072354E07B685A68BD
:10B550007B681B682B491B01CB18043319687B6877
:10B560001868284C082300012018C3185B88181C91
:10B570007B681C68234D082324012C19E3181B88C1
:10B580004343CB189A4201D3072334E07B685B68BE
:10B59000181CFEF7C1FE031C01225340DBB2002B36
:10B5A00001D0102327E07B685A687B681B68154927
:10B5B0001B01CB1804331B68D21A7B681968114829
:10B5C000082309014118CB181B88101C191C03F013
:10B5D000C7FD0B1C002B01D007230CE07A68BB1CB5
:10B5E0001B88002100910420111C0022FEF70CFF93
:10B5F000031CFB60FB68181CBD4604B0B0BDC04610
:10B60000862900208829002080B582B000AF7860AC
:10B610000B4B1B7801225340DBB2002B01D00823D7
:10B620000AE07B68002B01D10E2305E0054B5B7817
:10B630001A1C7B681A600023181CBD4602B080BD2E
:10B6400086290020B02800207EDF7047181CC046E5
:10B650007FDF7047181CC04681DF7047181CC0464A
:10B66000A9DF7047181CC046AADF7047181CC046E7
:10B6700080B582B000AF78607B680122111C9940D0
:10B680000B1C1A1C034B1B681A43024B1A60BD4665
:10B6900002B080BDAC2A002080B582B000AF7860D7
:10B6A0007B680122111C99400B1CDA43034B1B6879
:10B6B0001A40024B1A60BD4602B080BDAC2A002081
:10B6C00080B582B000AF78607B680122111C994080
:10B6D0000B1C1A1C044B1B6813405A1E9341DBB20F
:10B6E000181CBD4602B080BDAC2A002080B582B0D7
:10B6F00000AF78600A497A68131C5B009B189B00B6
:10B7000000225A5006487A680821131C5B009B18D7
:10B710009B00C3185B1800229A70BD4602B080BD22
:10B72000982A002080B584B000AF3A60BB1D021C8F
:10B730001A807B1D0A1C1A700823FB600023BB6063
:10B740002DE01B48BA680821131C5B009B189B0066
:10B75000C3185B189B787A1D12781340DBB2002B5C
:10B760001AD0BB1D1A88134B9A420DD01048BA68E4
:10B770000821131C5B009B189B00C3185B181B88D7
:10B78000BA1D12889A4205D13B68BA681A60002334
:10B79000FB6007E00523FB60BB680133BB60BB684F
:10B7A000002BCED0FB68181CBD4604B080BDC0463F
:10B7B0008C2A0020FFFF000090B585B000AF7860B4
:10B7C0003960354BFB600023BB605CE03348BA68EE
:10B7D0001821131CDB009B1A9B00C3185B189B7875
:10B7E000FF2B4DD13B681B78022B2AD02B48BA681F
:10B7F0001821131CDB009B1A9B00C3185B189B7855
:10B8000002229343D9B2254CBA681820131CDB00DE
:10B810009B1A9B00E3181B180A1C9A701F48BA68F1
:10B820001021131CDB009B1A9B00C3185A183B689D
:10B83000111C1A1C0723081C111C1A1C03F040FEC3
:10B8400017E01648BA681821131CDB009B1A9B00EE
:10B85000C3185B189B7801229343D9B20F4CBA6886
:10B860001820131CDB009B1A9B00E3181B180A1CF2
:10B870009A70BB68DAB27B681A700023FB6005E03F
:10B88000BB680133BB60BB68062B9FD9FB68181CE3
:10B89000BD4605B090BDC0464380000098290020F9
:10B8A00080B582B000AF78607A68131CDB009B1A09
:10B8B0009B001A1C10321E4BD3180133181C002198
:10B8C000062203F06DFF7A68131CDB009B1A9B00B5
:10B8D000174A9B18181C0021102203F061FF14481E
:10B8E0007A681021131CDB009B1A9B00C3185B189D
:10B8F000FF221A700E487A681821131CDB009B1A6D
:10B900009B00C3185B18FF229A7009487A681821B7
:10B91000131CDB009B1A9B00C3185B1801225242C8
:10B920001A807B68181CFFF7B7FEBD4602B080BDC9
:10B930009829002080B586B000AF78607B689AB205
:10B9400010493B1C0C33081C111C1A1CFFF764FB2C
:10B95000031C7B617B69002B0ED13B1C0C33181C34
:10B960005021FFF7D1FD031C7B617B69002B03D1C4
:10B970007B68181CFFF794FF7B69181CBD4606B056
:10B9800080BDC046A42A002080B586B000AFF86014
:10B99000B960BB1D1A8005237B6100233B612EE04B
:10B9A000FB68002B0DD11A483A691821131CDB00E3
:10B9B0009B1A9B00C3185B181B88BA1D12889A42F9
:10B9C00014D0FB68002B17D03A69131CDB009B1ABC
:10B9D0009B001A1C10320E4BD218FB68101C191C4D
:10B9E000072203F013FD031C002B05D1BB683A6945
:10B9F0001A6000237B6105E03B6901333B613B69D1
:10BA0000062BCDD97B69181CBD4606B080BDC0464B
:10BA10009829002080B586B000AFF860B9607A60E0
:10BA2000054B1B687B61F868B9687A687B69984741
:10BA3000BD4606B080BDC046982A002080B582B0C1
:10BA400000AF786018487A680821131C5B009B18C7
:10BA50009B00C3185B1801229A7013487A6808216A
:10BA6000131C5B009B189B00C3185B1801225242F9
:10BA70001A800D487A680821131C5B009B189B00F4
:10BA8000C3185B18FF22DA707A68131C5B009B18DE
:10BA90009B00054A9B18181C0021072203F080FE1A
:10BAA000BD4602B080BDC0468C2A002080B582B061
:10BAB00000AF78607B681A6809480821131C5B0096
:10BAC0009B189B00C3185B189B78012B04D07B68E4
:10BAD0001B68181CFFF7B2FFBD4602B080BDC04610
