:020000040000fa
:080000000002040000000000f2
:020000040000fa
:100008009a0200009a0200009a0200009a02000078
:100018009a0200009a0200009a0200009a02000068
:100028009a0200009a0200009a0200009a02000058
:100038009a0200009a0200009a0200005e05000081
:100048009a0200009a0200009a0200009a02000038
:100058009a0200009a0200009a0200009a02000028
:100068009a0200009a0200009a0200009a02000018
:100078009a0200009a0200009a0200009a02000008
:100088009a0200009a0200009a0200009a020000f8
:100098009a0200009a020000dc0200009a020000a6
:1000a8009a0200009a0200009a0200009a020000d8
:1000b8009a0200009a0200009a0200009a020000c8
:1000c8009a0200009a0200009a0200009a020000b8
:1000d8009a0200009a0200009a0200009a020000a8
:1000e8009a0200009a0200009a0200009a02000098
:1000f8009a0200009a0200009a0200009a02000088
:100108009a0200009a0200009a0200009a02000077
:100118009a0200009a0200009a0200009a02000067
:100128009a0200009a0200009a0200009a02000057
:100138009a0200009a0200009a0200009a02000047
:100148009a0200009a0200009a0200009a02000037
:100158009a0200009a0200009a0200009a02000027
:100168009a0200009a0200009a0200009a02000017
:100178009a0200009a0200009a0200009a02000007
:100188009a0200009a0200009a0200009a020000f7
:100198009a0200009a0200009a0200009a020000e7
:1001a8009a0200009a0200009a0200009a020000d7
:1001b8009a0200009a0200009a0200009a020000c7
:1001c8009a0200009a0200009a0200009a020000b7
:1001d8009a0200009a0200009a0200009a020000a7
:1001e8009a0200009a0200009a0200009a02000097
:0801f8009a0200009a020000c7
:020000040000fa
:100208009a0200009a0200009a0200009a02000076
:100218009a0200009a0200009a0200009a02000066
:100228009a0200009a0200009a0200009a02000056
:100238009a0200009a0200009a0200005e0500007f
:100248009a0200009a0200009a0200009a02000036
:100258009a0200009a0200009a0200009a02000026
:100268009a0200009a0200009a0200009a02000016
:100278009a0200009a0200009a0200009a02000006
:100288009a0200009a0200009a0200009a020000f6
:100298009a0200009a020000dc0200009a020000a4
:1002a8009a0200009a0200009a0200009a020000d6
:1002b8009a0200009a0200009a0200009a020000c6
:1002c8009a0200009a0200009a0200009a020000b6
:1002d8009a0200009a0200009a0200009a020000a6
:1002e8009a0200009a0200009a0200009a02000096
:1002f8009a0200009a0200009a0200009a02000086
:100308009a0200009a0200009a0200009a02000075
:100318009a0200009a0200009a0200009a02000065
:100328009a0200009a0200009a0200009a02000055
:100338009a0200009a0200009a0200009a02000045
:100348009a0200009a0200009a0200009a02000035
:100358009a0200009a0200009a0200009a02000025
:100368009a0200009a0200009a0200009a02000015
:100378009a0200009a0200009a0200009a02000005
:100388009a0200009a0200009a0200009a020000f5
:100398009a0200009a0200009a0200009a020000e5
:1003a8009a0200009a0200009a0200009a020000d5
:1003b8009a0200009a0200009a0200009a020000c5
:1003c8009a0200009a0200009a0200009a020000b5
:1003d8009a0200009a0200009a0200009a020000a5
:1003e8009a0200009a0200009a0200009a02000095
:0803f8009a0200009a020000c5
:020000040000fa
:100400004f8e20000eff20000e018800000000002b
:10041000000020000000e000020032000001200087
:10042000200288000c000700a069200001002000c5
:1004300011000700000020000000e0000200320070
:100440000000020000000000620602000000000040
:100450000040da000000fe004440a9000000200037
:100460000000e0000300320000002000a00188002e
:100470004440a80000000600910188008000780038
:100480000000eb0015003700e280400032a0b4000d
:100490009101ba00e280400032a0b4009102ba009b
:1004a000e280400032a0b4000002eb00472bde00e7
:1004b000f507b200602ce10004003a000059eb009f
:1004c0008301e900fdff3e00040037006128e100e0
:1004d000010032000082eb00040007001101ba00a5
:1004e0000200e000e8ff3a00000006003159ba00bf
:1004f0008301e9000c0032002159ba008301e900b0
:10050000080032000400e00003003a00e2804000ee
:1005100032a0b400f5ff370011d9ba008301e90019
:10052000faff3a008100e800e180400032a0b40008
:0c053000000006000040da000000fe00a1
:020000040000fa
:10053c000000fa00941180000442780061426200cd
:10054c00044078000080fa00000006000000fa0069
:10055c00b5118000f40f20000482620004007800c2
:10056c000080fa00000006000000fa0087c0a90015
:10057c0087e0a900940580000480a0000490a100ed
:10058c0004a0a000940588009405800004c0a1007c
:10059c0004d0a10004e0a1009405880097c0a80035
:1005ac0097e0a9000080fa00000006003600f80071
:1005bc00809fbe00829fbe00849fbe00869fbe00af
:1005cc000600fa00daff0700004278000402fb0084
:1005dc00040f78001e027800e00f52002200320057
:1005ec00daff070000027800244798002e429000a2
:1005fc00ea4f520003003a00544380000402e80022
:10060c005443880054438000ea0f52000200360025
:10061c00a400200054438800344380000402e80006
:10062c007f02620024079800254380002e02900070
:10063c00848f52000800320035438000c4862000ad
:10064c0004824200ae429000054a78002e029000cf
:10065c0034438800dbff3700444380000402e80089
:10066c0044438800d7ff370087c0a9000080fa00f8
:10067c004f03be004f02be004f01be004f00be0034
:10068c003600f900004006000000fa000002eb0002
:10069c00244388000002eb00344388000002eb0086
:1006ac00444388000002eb00544388000080fa00a9
:1006bc00000006000000fa000002eb008411880024
:1006cc000002eb00941188000002eb00c4118800ba
:1006dc003342a80014022000c41188003062a80024
:1006ec0031e2a8003342a80005000700e6ff07002e
:1006fc0087c0a90087e0a9000080fa00000006006e
:10070c000000fa0098ff070097c0a80087c0a90056
:10071c000080fa00000006000200fa000082eb00e4
:10072c00040f78002543800034438000848f5200ee
:10073c000b00320024438000e80242004486200073
:10074c0004824200144278000482fb00040f7800fb
:10075c00244380000402e8007f02620024438800e6
:10076c001e027800040078000080fa0000000600e9
:10077c000600fa00200798000002eb00040f780036
:10078c000002eb001407980054438000e00f520065
:10079c0003003a000082eb001b0037000000000051
:1007ac00ddff070000027800140798001e0290007d
:1007bc00e00f52000f0035001e029000044278003a
:1007cc00ae029000844a78002e0290000402e800e9
:1007dc00240798001e0fe8001e029000ea0f52003a
:1007ec00eeff3a00544380000402e90054438800b1
:1007fc000100370000000000ae0290000042eb0048
:10080c00844a78001e027800040078000080fa0008
:10081c00000006000a00fa00200798003107980033
:10082c00420798000002eb00040f78000002eb0076
:10083c0014079800080037001e029000044278004c
:10084c00ae029000844a78001e0fe8002e02900041
:10085c000402e800240798003e0290009e027800f3
:10086c00848f520006003100abff070000027800b5
:10087c00140798001e029000e00f5200eeff3d009e
:10088c00454380004e029000050a78000002eb0000
:10089c00444388001e027800040078000080fa00af
:1008ac00000006000800fa002007980031079800a5
:1008bc000002eb00040f7800160037000000000067
:1008cc00951180000420200004826200e00f520089
:1008dc00fbff3a002e0290001e02420014427800e8
:1008ec000402fb00a41188001e0fe8000002eb00bc
:1008fc0014079800030037001e0290000402e80061
:10090c00140798009e029000743e2000848f5200c1
:10091c00f9ff34003e0290009e027800848f520052
:10092c00e6ff39001e027800040078000080fa000f
:10093c00000006000000fa0044002800040a8800a9
:10094c000002eb00140a8800140a80000480a10045
:10095c000490a10004a0a10004b0a100140a880016
:10096c000002eb00240a88000002eb00340a880025
:10097c004781a8000002eb00440a88000002eb004b
:10098c00540a88000002eb00840a8800541a2000e4
:10099c00a40a8800240d2000c40a880084e0a90061
:1009ac0004082000a40488003505800004002400fd
:1009bc0005027200340588000080fa000000060071
:1009cc000000fa000002eb00040488000002eb00b7
:1009dc00140488000002eb00140288000080fa0066
:1009ec00000006000000fa000002eb00042788005b
:1009fc000002eb00142788000002eb00241688008c
:100a0c000002eb00641688000082eb0004168800dc
:100a1c000082eb0044168800c802a900c8e2a900b5
:100a2c00c8a2a900c8c2a900c922a900c942a9002c
:100a3c00c962a900c062a900c082a900c042a90075
:100a4c00c862a900c842a900c882a9000080fa00a7
:100a5c00000006000000fa000002eb00a41388005e
:100a6c0075e2a8007562a90074e2a800a4138000c6
:100a7c000400a0000410a100a41388000002eb00e5
:100a8c00c413880079e2a8007962a90078e2a80072
:100a9c00c41380000400a1000410a000c41388003b
:100aac00040f2000d41388000080fa000000060018
:100abc00801f7800849fbe003400f80000002000e6
:100acc00a00188000200fa00744480000402e800cf
:100adc00744488007544800094192000848f52005f
:100aec000b003e00ccc2a800cd22a800cd42a8002d
:100afc00cd62a800c462a800c482a800c442a800a9
:100b0c00cc62a800cc42a800a40f2000b41388002b
:100b1c007544800094192000848f52000f00360019
:100b2c0075448000f4222000848f52000b003e009c
:100b3c00ccc2a900cd22a900cd42a900cd62a9004a
:100b4c00c462a900c482a900c442a900cc62a90055
:100b5c00cc42a9000002eb00b4138800754480005d
:100b6c00f4222000848f52002c0036007544800043
:100b7c00f4312000848f520028003e001e027800c1
:100b8c00e00f520001003a00ccc2a8001e0278000f
:100b9c00e10f520001003a00cd22a8001e0278009d
:100bac00e20f520001003a00cd42a8001e0278006c
:100bbc00e30f520001003a00cd62a8001e0278003b
:100bcc00e40f520001003a00c462a8001e02780033
:100bdc00e50f520001003a00c482a8001e02780002
:100bec00e60f520001003a00c442a8001e02780031
:100bfc00e70f520001003a00cc62a8001e027800f8
:100c0c00e80f520001003a00cc42a8007444800066
:100c1c001532200004825200b41388007544800001
:100c2c00f4312000848f52000f0036007544800090
:100c3c00543b2000848f52000b003e00ccc2a90014
:100c4c00cd22a900cd42a900cd62a900c462a900a1
:100c5c00c482a900c442a900cc62a900cc42a9005c
:100c6c000002eb00b413880075448000543b200054
:100c7c00848f52000a00360004232000744488003c
:100c8c001e0fe8001e027800e90f520004003a0023
:100c9c000002eb00040f78000002eb0074448800a3
:100cac0084e0a9000080fa003400f9004f02be0075
:100cbc004f007800004006000000fa000002eb0034
:100ccc00143a8800143a800004c0a00004d0a1009b
:100cdc0004e0a100143a88000002eb00243a8800da
:100cec0000000000153a800004022000048262001b
:100cfc00e00f5200fbff32003aff070030ff070005
:100d0c000cff0700cc82a80052ff0700ccc2a90040
:100d1c00cd22a900cd42a900cd62a900c462a900d0
:080d2c0000000000feff37008b
:020000040000fa
:100d340000080000e40000000000000000000000c3
:020000040000fa
:0200000401f009
:04000000ffff0000fe
:020000040000fa
:0200000401f009
:04000800ffff0000f6
:020000040000fa
:0200000401f009
:04000c0059ff000098
:020000040000fa
:0200000401f009
:040010009bff000052
:020000040000fa
:0200000401f009
:040014005fff00008a
:020000040000fa
:0200000401f009
:04001800f4ff0000f1
:020000040000fa
:0200000401f009
:04001c00ffff0000e2
:00000001FF
